{
  "_format": "hh-sol-artifact-1",
  "contractName": "VotingToken",
  "sourceName": "contracts/VotingToken.sol",
  "abi": [
    {
      "inputs": [],
      "stateMutability": "nonpayable",
      "type": "constructor"
    },
    {
      "anonymous": false,
      "inputs": [
        {
          "indexed": false,
          "internalType": "address",
          "name": "previousAdmin",
          "type": "address"
        },
        {
          "indexed": false,
          "internalType": "address",
          "name": "newAdmin",
          "type": "address"
        }
      ],
      "name": "AdminChanged",
      "type": "event"
    },
    {
      "anonymous": false,
      "inputs": [
        {
          "indexed": true,
          "internalType": "address",
          "name": "owner",
          "type": "address"
        },
        {
          "indexed": true,
          "internalType": "address",
          "name": "spender",
          "type": "address"
        },
        {
          "indexed": false,
          "internalType": "uint256",
          "name": "value",
          "type": "uint256"
        }
      ],
      "name": "Approval",
      "type": "event"
    },
    {
      "anonymous": false,
      "inputs": [
        {
          "indexed": true,
          "internalType": "address",
          "name": "beacon",
          "type": "address"
        }
      ],
      "name": "BeaconUpgraded",
      "type": "event"
    },
    {
      "anonymous": false,
      "inputs": [
        {
          "indexed": true,
          "internalType": "address",
          "name": "delegator",
          "type": "address"
        },
        {
          "indexed": true,
          "internalType": "address",
          "name": "fromDelegate",
          "type": "address"
        },
        {
          "indexed": true,
          "internalType": "address",
          "name": "toDelegate",
          "type": "address"
        }
      ],
      "name": "DelegateChanged",
      "type": "event"
    },
    {
      "anonymous": false,
      "inputs": [
        {
          "indexed": true,
          "internalType": "address",
          "name": "delegate",
          "type": "address"
        },
        {
          "indexed": false,
          "internalType": "uint256",
          "name": "previousBalance",
          "type": "uint256"
        },
        {
          "indexed": false,
          "internalType": "uint256",
          "name": "newBalance",
          "type": "uint256"
        }
      ],
      "name": "DelegateVotesChanged",
      "type": "event"
    },
    {
      "anonymous": false,
      "inputs": [
        {
          "indexed": false,
          "internalType": "uint8",
          "name": "version",
          "type": "uint8"
        }
      ],
      "name": "Initialized",
      "type": "event"
    },
    {
      "anonymous": false,
      "inputs": [
        {
          "indexed": true,
          "internalType": "address",
          "name": "previousOwner",
          "type": "address"
        },
        {
          "indexed": true,
          "internalType": "address",
          "name": "newOwner",
          "type": "address"
        }
      ],
      "name": "OwnershipTransferred",
      "type": "event"
    },
    {
      "anonymous": false,
      "inputs": [
        {
          "indexed": false,
          "internalType": "address",
          "name": "account",
          "type": "address"
        }
      ],
      "name": "Paused",
      "type": "event"
    },
    {
      "anonymous": false,
      "inputs": [
        {
          "indexed": true,
          "internalType": "address",
          "name": "from",
          "type": "address"
        },
        {
          "indexed": true,
          "internalType": "address",
          "name": "to",
          "type": "address"
        },
        {
          "indexed": false,
          "internalType": "uint256",
          "name": "value",
          "type": "uint256"
        }
      ],
      "name": "Transfer",
      "type": "event"
    },
    {
      "anonymous": false,
      "inputs": [
        {
          "indexed": false,
          "internalType": "address",
          "name": "account",
          "type": "address"
        }
      ],
      "name": "Unpaused",
      "type": "event"
    },
    {
      "anonymous": false,
      "inputs": [
        {
          "indexed": true,
          "internalType": "address",
          "name": "implementation",
          "type": "address"
        }
      ],
      "name": "Upgraded",
      "type": "event"
    },
    {
      "inputs": [],
      "name": "DOMAIN_SEPARATOR",
      "outputs": [
        {
          "internalType": "bytes32",
          "name": "",
          "type": "bytes32"
        }
      ],
      "stateMutability": "view",
      "type": "function"
    },
    {
      "inputs": [
        {
          "internalType": "address",
          "name": "owner",
          "type": "address"
        },
        {
          "internalType": "address",
          "name": "spender",
          "type": "address"
        }
      ],
      "name": "allowance",
      "outputs": [
        {
          "internalType": "uint256",
          "name": "",
          "type": "uint256"
        }
      ],
      "stateMutability": "view",
      "type": "function"
    },
    {
      "inputs": [
        {
          "internalType": "address",
          "name": "spender",
          "type": "address"
        },
        {
          "internalType": "uint256",
          "name": "amount",
          "type": "uint256"
        }
      ],
      "name": "approve",
      "outputs": [
        {
          "internalType": "bool",
          "name": "",
          "type": "bool"
        }
      ],
      "stateMutability": "nonpayable",
      "type": "function"
    },
    {
      "inputs": [
        {
          "internalType": "address",
          "name": "account",
          "type": "address"
        }
      ],
      "name": "balanceOf",
      "outputs": [
        {
          "internalType": "uint256",
          "name": "",
          "type": "uint256"
        }
      ],
      "stateMutability": "view",
      "type": "function"
    },
    {
      "inputs": [
        {
          "internalType": "address",
          "name": "account",
          "type": "address"
        },
        {
          "internalType": "uint32",
          "name": "pos",
          "type": "uint32"
        }
      ],
      "name": "checkpoints",
      "outputs": [
        {
          "components": [
            {
              "internalType": "uint32",
              "name": "fromBlock",
              "type": "uint32"
            },
            {
              "internalType": "uint224",
              "name": "votes",
              "type": "uint224"
            }
          ],
          "internalType": "struct ERC20VotesUpgradeable.Checkpoint",
          "name": "",
          "type": "tuple"
        }
      ],
      "stateMutability": "view",
      "type": "function"
    },
    {
      "inputs": [],
      "name": "decimals",
      "outputs": [
        {
          "internalType": "uint8",
          "name": "",
          "type": "uint8"
        }
      ],
      "stateMutability": "view",
      "type": "function"
    },
    {
      "inputs": [
        {
          "internalType": "address",
          "name": "spender",
          "type": "address"
        },
        {
          "internalType": "uint256",
          "name": "subtractedValue",
          "type": "uint256"
        }
      ],
      "name": "decreaseAllowance",
      "outputs": [
        {
          "internalType": "bool",
          "name": "",
          "type": "bool"
        }
      ],
      "stateMutability": "nonpayable",
      "type": "function"
    },
    {
      "inputs": [
        {
          "internalType": "address",
          "name": "delegatee",
          "type": "address"
        }
      ],
      "name": "delegate",
      "outputs": [],
      "stateMutability": "nonpayable",
      "type": "function"
    },
    {
      "inputs": [
        {
          "internalType": "address",
          "name": "delegatee",
          "type": "address"
        },
        {
          "internalType": "uint256",
          "name": "nonce",
          "type": "uint256"
        },
        {
          "internalType": "uint256",
          "name": "expiry",
          "type": "uint256"
        },
        {
          "internalType": "uint8",
          "name": "v",
          "type": "uint8"
        },
        {
          "internalType": "bytes32",
          "name": "r",
          "type": "bytes32"
        },
        {
          "internalType": "bytes32",
          "name": "s",
          "type": "bytes32"
        }
      ],
      "name": "delegateBySig",
      "outputs": [],
      "stateMutability": "nonpayable",
      "type": "function"
    },
    {
      "inputs": [
        {
          "internalType": "address",
          "name": "account",
          "type": "address"
        }
      ],
      "name": "delegates",
      "outputs": [
        {
          "internalType": "address",
          "name": "",
          "type": "address"
        }
      ],
      "stateMutability": "view",
      "type": "function"
    },
    {
      "inputs": [
        {
          "internalType": "uint256",
          "name": "blockNumber",
          "type": "uint256"
        }
      ],
      "name": "getPastTotalSupply",
      "outputs": [
        {
          "internalType": "uint256",
          "name": "",
          "type": "uint256"
        }
      ],
      "stateMutability": "view",
      "type": "function"
    },
    {
      "inputs": [
        {
          "internalType": "address",
          "name": "account",
          "type": "address"
        },
        {
          "internalType": "uint256",
          "name": "blockNumber",
          "type": "uint256"
        }
      ],
      "name": "getPastVotes",
      "outputs": [
        {
          "internalType": "uint256",
          "name": "",
          "type": "uint256"
        }
      ],
      "stateMutability": "view",
      "type": "function"
    },
    {
      "inputs": [
        {
          "internalType": "address",
          "name": "account",
          "type": "address"
        }
      ],
      "name": "getVotes",
      "outputs": [
        {
          "internalType": "uint256",
          "name": "",
          "type": "uint256"
        }
      ],
      "stateMutability": "view",
      "type": "function"
    },
    {
      "inputs": [
        {
          "internalType": "address",
          "name": "spender",
          "type": "address"
        },
        {
          "internalType": "uint256",
          "name": "addedValue",
          "type": "uint256"
        }
      ],
      "name": "increaseAllowance",
      "outputs": [
        {
          "internalType": "bool",
          "name": "",
          "type": "bool"
        }
      ],
      "stateMutability": "nonpayable",
      "type": "function"
    },
    {
      "inputs": [],
      "name": "initialize",
      "outputs": [],
      "stateMutability": "nonpayable",
      "type": "function"
    },
    {
      "inputs": [
        {
          "internalType": "address",
          "name": "to",
          "type": "address"
        },
        {
          "internalType": "uint256",
          "name": "amount",
          "type": "uint256"
        }
      ],
      "name": "mint",
      "outputs": [],
      "stateMutability": "nonpayable",
      "type": "function"
    },
    {
      "inputs": [],
      "name": "name",
      "outputs": [
        {
          "internalType": "string",
          "name": "",
          "type": "string"
        }
      ],
      "stateMutability": "view",
      "type": "function"
    },
    {
      "inputs": [
        {
          "internalType": "address",
          "name": "owner",
          "type": "address"
        }
      ],
      "name": "nonces",
      "outputs": [
        {
          "internalType": "uint256",
          "name": "",
          "type": "uint256"
        }
      ],
      "stateMutability": "view",
      "type": "function"
    },
    {
      "inputs": [
        {
          "internalType": "address",
          "name": "account",
          "type": "address"
        }
      ],
      "name": "numCheckpoints",
      "outputs": [
        {
          "internalType": "uint32",
          "name": "",
          "type": "uint32"
        }
      ],
      "stateMutability": "view",
      "type": "function"
    },
    {
      "inputs": [],
      "name": "owner",
      "outputs": [
        {
          "internalType": "address",
          "name": "",
          "type": "address"
        }
      ],
      "stateMutability": "view",
      "type": "function"
    },
    {
      "inputs": [],
      "name": "pause",
      "outputs": [],
      "stateMutability": "nonpayable",
      "type": "function"
    },
    {
      "inputs": [],
      "name": "paused",
      "outputs": [
        {
          "internalType": "bool",
          "name": "",
          "type": "bool"
        }
      ],
      "stateMutability": "view",
      "type": "function"
    },
    {
      "inputs": [
        {
          "internalType": "address",
          "name": "owner",
          "type": "address"
        },
        {
          "internalType": "address",
          "name": "spender",
          "type": "address"
        },
        {
          "internalType": "uint256",
          "name": "value",
          "type": "uint256"
        },
        {
          "internalType": "uint256",
          "name": "deadline",
          "type": "uint256"
        },
        {
          "internalType": "uint8",
          "name": "v",
          "type": "uint8"
        },
        {
          "internalType": "bytes32",
          "name": "r",
          "type": "bytes32"
        },
        {
          "internalType": "bytes32",
          "name": "s",
          "type": "bytes32"
        }
      ],
      "name": "permit",
      "outputs": [],
      "stateMutability": "nonpayable",
      "type": "function"
    },
    {
      "inputs": [],
      "name": "proxiableUUID",
      "outputs": [
        {
          "internalType": "bytes32",
          "name": "",
          "type": "bytes32"
        }
      ],
      "stateMutability": "view",
      "type": "function"
    },
    {
      "inputs": [],
      "name": "renounceOwnership",
      "outputs": [],
      "stateMutability": "nonpayable",
      "type": "function"
    },
    {
      "inputs": [],
      "name": "symbol",
      "outputs": [
        {
          "internalType": "string",
          "name": "",
          "type": "string"
        }
      ],
      "stateMutability": "view",
      "type": "function"
    },
    {
      "inputs": [],
      "name": "totalSupply",
      "outputs": [
        {
          "internalType": "uint256",
          "name": "",
          "type": "uint256"
        }
      ],
      "stateMutability": "view",
      "type": "function"
    },
    {
      "inputs": [
        {
          "internalType": "address",
          "name": "to",
          "type": "address"
        },
        {
          "internalType": "uint256",
          "name": "amount",
          "type": "uint256"
        }
      ],
      "name": "transfer",
      "outputs": [
        {
          "internalType": "bool",
          "name": "",
          "type": "bool"
        }
      ],
      "stateMutability": "nonpayable",
      "type": "function"
    },
    {
      "inputs": [
        {
          "internalType": "address",
          "name": "from",
          "type": "address"
        },
        {
          "internalType": "address",
          "name": "to",
          "type": "address"
        },
        {
          "internalType": "uint256",
          "name": "amount",
          "type": "uint256"
        }
      ],
      "name": "transferFrom",
      "outputs": [
        {
          "internalType": "bool",
          "name": "",
          "type": "bool"
        }
      ],
      "stateMutability": "nonpayable",
      "type": "function"
    },
    {
      "inputs": [
        {
          "internalType": "address",
          "name": "newOwner",
          "type": "address"
        }
      ],
      "name": "transferOwnership",
      "outputs": [],
      "stateMutability": "nonpayable",
      "type": "function"
    },
    {
      "inputs": [],
      "name": "unpause",
      "outputs": [],
      "stateMutability": "nonpayable",
      "type": "function"
    },
    {
      "inputs": [
        {
          "internalType": "address",
          "name": "newImplementation",
          "type": "address"
        }
      ],
      "name": "upgradeTo",
      "outputs": [],
      "stateMutability": "nonpayable",
      "type": "function"
    },
    {
      "inputs": [
        {
          "internalType": "address",
          "name": "newImplementation",
          "type": "address"
        },
        {
          "internalType": "bytes",
          "name": "data",
          "type": "bytes"
        }
      ],
      "name": "upgradeToAndCall",
      "outputs": [],
      "stateMutability": "payable",
      "type": "function"
    }
  ],
  "bytecode": "0x60a06040523073ffffffffffffffffffffffffffffffffffffffff1660809073ffffffffffffffffffffffffffffffffffffffff1660601b8152503480156200004757600080fd5b50620000586200005e60201b60201c565b62000209565b600060019054906101000a900460ff1615620000b1576040517f08c379a0000000000000000000000000000000000000000000000000000000008152600401620000a8906200015d565b60405180910390fd5b60ff801660008054906101000a900460ff1660ff161015620001235760ff6000806101000a81548160ff021916908360ff1602179055507f7f26b83ff96e1f2b6a682f133852f6798a09c465da95921460cefb384740249860ff6040516200011a91906200017f565b60405180910390a15b565b6000620001346027836200019c565b91506200014182620001ba565b604082019050919050565b6200015781620001ad565b82525050565b60006020820190508181036000830152620001788162000125565b9050919050565b60006020820190506200019660008301846200014c565b92915050565b600082825260208201905092915050565b600060ff82169050919050565b7f496e697469616c697a61626c653a20636f6e747261637420697320696e69746960008201527f616c697a696e6700000000000000000000000000000000000000000000000000602082015250565b60805160601c6157f86200024460003960008181610917015281816109a601528181610bba01528181610c490152610cf901526157f86000f3fe6080604052600436106101ee5760003560e01c80636fcfff451161010d57806395d89b41116100a0578063c3cda5201161006f578063c3cda5201461071a578063d505accf14610743578063dd62ed3e1461076c578063f1127ed8146107a9578063f2fde38b146107e6576101ee565b806395d89b41146106385780639ab24eb014610663578063a457c2d7146106a0578063a9059cbb146106dd576101ee565b80638129fc1c116100dc5780638129fc1c146105a25780638456cb59146105b95780638da5cb5b146105d05780638e539e8c146105fb576101ee565b80636fcfff45146104d457806370a0823114610511578063715018a61461054e5780637ecebe0014610565576101ee565b80633a46b1a81161018557806352d1902d1161015457806352d1902d14610418578063587cde1e146104435780635c19a95c146104805780635c975abb146104a9576101ee565b80633a46b1a81461037f5780633f4ba83a146103bc57806340c10f19146103d35780634f1ef286146103fc576101ee565b8063313ce567116101c1578063313ce567146102c35780633644e515146102ee5780633659cfe6146103195780633950935114610342576101ee565b806306fdde03146101f3578063095ea7b31461021e57806318160ddd1461025b57806323b872dd14610286575b600080fd5b3480156101ff57600080fd5b5061020861080f565b604051610215919061464e565b60405180910390f35b34801561022a57600080fd5b5061024560048036038101906102409190613d26565b6108a1565b60405161025291906144bf565b60405180910390f35b34801561026757600080fd5b506102706108c4565b60405161027d9190614aab565b60405180910390f35b34801561029257600080fd5b506102ad60048036038101906102a89190613be5565b6108ce565b6040516102ba91906144bf565b60405180910390f35b3480156102cf57600080fd5b506102d86108fd565b6040516102e59190614b0a565b60405180910390f35b3480156102fa57600080fd5b50610303610906565b60405161031091906144da565b60405180910390f35b34801561032557600080fd5b50610340600480360381019061033b9190613b80565b610915565b005b34801561034e57600080fd5b5061036960048036038101906103649190613d26565b610ac4565b60405161037691906144bf565b60405180910390f35b34801561038b57600080fd5b506103a660048036038101906103a19190613d26565b610afb565b6040516103b39190614aab565b60405180910390f35b3480156103c857600080fd5b506103d1610b90565b005b3480156103df57600080fd5b506103fa60048036038101906103f59190613d26565b610ba2565b005b61041660048036038101906104119190613cd2565b610bb8565b005b34801561042457600080fd5b5061042d610cf5565b60405161043a91906144da565b60405180910390f35b34801561044f57600080fd5b5061046a60048036038101906104659190613b80565b610dae565b60405161047791906144a4565b60405180910390f35b34801561048c57600080fd5b506104a760048036038101906104a29190613b80565b610e18565b005b3480156104b557600080fd5b506104be610e2c565b6040516104cb91906144bf565b60405180910390f35b3480156104e057600080fd5b506104fb60048036038101906104f69190613b80565b610e43565b6040516105089190614aef565b60405180910390f35b34801561051d57600080fd5b5061053860048036038101906105339190613b80565b610e98565b6040516105459190614aab565b60405180910390f35b34801561055a57600080fd5b50610563610ee1565b005b34801561057157600080fd5b5061058c60048036038101906105879190613b80565b610ef5565b6040516105999190614aab565b60405180910390f35b3480156105ae57600080fd5b506105b7610f45565b005b3480156105c557600080fd5b506105ce61114d565b005b3480156105dc57600080fd5b506105e561115f565b6040516105f291906144a4565b60405180910390f35b34801561060757600080fd5b50610622600480360381019061061d9190613e50565b611189565b60405161062f9190614aab565b60405180910390f35b34801561064457600080fd5b5061064d6111e0565b60405161065a919061464e565b60405180910390f35b34801561066f57600080fd5b5061068a60048036038101906106859190613b80565b611272565b6040516106979190614aab565b60405180910390f35b3480156106ac57600080fd5b506106c760048036038101906106c29190613d26565b6113ab565b6040516106d491906144bf565b60405180910390f35b3480156106e957600080fd5b5061070460048036038101906106ff9190613d26565b611422565b60405161071191906144bf565b60405180910390f35b34801561072657600080fd5b50610741600480360381019061073c9190613d62565b611445565b005b34801561074f57600080fd5b5061076a60048036038101906107659190613c34565b611549565b005b34801561077857600080fd5b50610793600480360381019061078e9190613ba9565b61168b565b6040516107a09190614aab565b60405180910390f35b3480156107b557600080fd5b506107d060048036038101906107cb9190613deb565b611712565b6040516107dd9190614a90565b60405180910390f35b3480156107f257600080fd5b5061080d60048036038101906108089190613b80565b611849565b005b60606036805461081e90614d5e565b80601f016020809104026020016040519081016040528092919081815260200182805461084a90614d5e565b80156108975780601f1061086c57610100808354040283529160200191610897565b820191906000526020600020905b81548152906001019060200180831161087a57829003601f168201915b5050505050905090565b6000806108ac6118cd565b90506108b98185856118d5565b600191505092915050565b6000603554905090565b6000806108d96118cd565b90506108e6858285611aa0565b6108f1858585611b2c565b60019150509392505050565b60006012905090565b6000610910611db0565b905090565b7f000000000000000000000000000000000000000000000000000000000000000073ffffffffffffffffffffffffffffffffffffffff163073ffffffffffffffffffffffffffffffffffffffff1614156109a4576040517f08c379a000000000000000000000000000000000000000000000000000000000815260040161099b90614790565b60405180910390fd5b7f000000000000000000000000000000000000000000000000000000000000000073ffffffffffffffffffffffffffffffffffffffff166109e3611df0565b73ffffffffffffffffffffffffffffffffffffffff1614610a39576040517f08c379a0000000000000000000000000000000000000000000000000000000008152600401610a3090614830565b60405180910390fd5b610a4281611e47565b610ac181600067ffffffffffffffff811115610a87577f4e487b7100000000000000000000000000000000000000000000000000000000600052604160045260246000fd5b6040519080825280601f01601f191660200182016040528015610ab95781602001600182028036833780820191505090505b506000611e52565b50565b600080610acf6118cd565b9050610af0818585610ae1858961168b565b610aeb9190614bb8565b6118d5565b600191505092915050565b6000438210610b3f576040517f08c379a0000000000000000000000000000000000000000000000000000000008152600401610b36906146b0565b60405180910390fd5b610b8861013160008573ffffffffffffffffffffffffffffffffffffffff1673ffffffffffffffffffffffffffffffffffffffff16815260200190815260200160002083611fcf565b905092915050565b610b98612127565b610ba06121a5565b565b610baa612127565b610bb48282612208565b5050565b7f000000000000000000000000000000000000000000000000000000000000000073ffffffffffffffffffffffffffffffffffffffff163073ffffffffffffffffffffffffffffffffffffffff161415610c47576040517f08c379a0000000000000000000000000000000000000000000000000000000008152600401610c3e90614790565b60405180910390fd5b7f000000000000000000000000000000000000000000000000000000000000000073ffffffffffffffffffffffffffffffffffffffff16610c86611df0565b73ffffffffffffffffffffffffffffffffffffffff1614610cdc576040517f08c379a0000000000000000000000000000000000000000000000000000000008152600401610cd390614830565b60405180910390fd5b610ce582611e47565b610cf182826001611e52565b5050565b60007f000000000000000000000000000000000000000000000000000000000000000073ffffffffffffffffffffffffffffffffffffffff163073ffffffffffffffffffffffffffffffffffffffff1614610d85576040517f08c379a0000000000000000000000000000000000000000000000000000000008152600401610d7c90614850565b60405180910390fd5b7f360894a13ba1a3210667c828492db98dca3e2076cc3735a920a3ca505d382bbc60001b905090565b600061013060008373ffffffffffffffffffffffffffffffffffffffff1673ffffffffffffffffffffffffffffffffffffffff16815260200190815260200160002060009054906101000a900473ffffffffffffffffffffffffffffffffffffffff169050919050565b610e29610e236118cd565b82612216565b50565b6000606560009054906101000a900460ff16905090565b6000610e9161013160008473ffffffffffffffffffffffffffffffffffffffff1673ffffffffffffffffffffffffffffffffffffffff16815260200190815260200160002080549050612331565b9050919050565b6000603360008373ffffffffffffffffffffffffffffffffffffffff1673ffffffffffffffffffffffffffffffffffffffff168152602001908152602001600020549050919050565b610ee9612127565b610ef36000612384565b565b6000610f3e60fd60008473ffffffffffffffffffffffffffffffffffffffff1673ffffffffffffffffffffffffffffffffffffffff16815260200190815260200160002061244a565b9050919050565b60008060019054906101000a900460ff16159050808015610f765750600160008054906101000a900460ff1660ff16105b80610fa35750610f8530612458565b158015610fa25750600160008054906101000a900460ff1660ff16145b5b610fe2576040517f08c379a0000000000000000000000000000000000000000000000000000000008152600401610fd9906148b0565b60405180910390fd5b60016000806101000a81548160ff021916908360ff160217905550801561101f576001600060016101000a81548160ff0219169083151502179055505b6110936040518060400160405280600b81526020017f566f74696e67546f6b656e0000000000000000000000000000000000000000008152506040518060400160405280600381526020017f564f54000000000000000000000000000000000000000000000000000000000081525061247b565b61109b6124d8565b6110a3612531565b6110e16040518060400160405280600b81526020017f566f74696e67546f6b656e00000000000000000000000000000000000000000081525061258a565b6110e961261b565b6110f161266c565b801561114a5760008060016101000a81548160ff0219169083151502179055507f7f26b83ff96e1f2b6a682f133852f6798a09c465da95921460cefb384740249860016040516111419190614633565b60405180910390a15b50565b611155612127565b61115d6126bd565b565b6000609760009054906101000a900473ffffffffffffffffffffffffffffffffffffffff16905090565b60004382106111cd576040517f08c379a00000000000000000000000000000000000000000000000000000000081526004016111c4906146b0565b60405180910390fd5b6111d961013283611fcf565b9050919050565b6060603780546111ef90614d5e565b80601f016020809104026020016040519081016040528092919081815260200182805461121b90614d5e565b80156112685780601f1061123d57610100808354040283529160200191611268565b820191906000526020600020905b81548152906001019060200180831161124b57829003601f168201915b5050505050905090565b60008061013160008473ffffffffffffffffffffffffffffffffffffffff1673ffffffffffffffffffffffffffffffffffffffff168152602001908152602001600020805490509050600081146113825761013160008473ffffffffffffffffffffffffffffffffffffffff1673ffffffffffffffffffffffffffffffffffffffff1681526020019081526020016000206001826113109190614c3f565b81548110611347577f4e487b7100000000000000000000000000000000000000000000000000000000600052603260045260246000fd5b9060005260206000200160000160049054906101000a90047bffffffffffffffffffffffffffffffffffffffffffffffffffffffff16611385565b60005b7bffffffffffffffffffffffffffffffffffffffffffffffffffffffff16915050919050565b6000806113b66118cd565b905060006113c4828661168b565b905083811015611409576040517f08c379a000000000000000000000000000000000000000000000000000000000815260040161140090614a50565b60405180910390fd5b61141682868684036118d5565b60019250505092915050565b60008061142d6118cd565b905061143a818585611b2c565b600191505092915050565b83421115611488576040517f08c379a000000000000000000000000000000000000000000000000000000000815260040161147f906146f0565b60405180910390fd5b60006114ea6114e27fe48329057bfd03d55e49b547132e39cffd9c1820ad7b9d4c5307691425d15adf8989896040516020016114c79493929190614556565b60405160208183030381529060405280519060200120612720565b85858561273a565b90506114f581612765565b8614611536576040517f08c379a000000000000000000000000000000000000000000000000000000000815260040161152d90614730565b60405180910390fd5b6115408188612216565b50505050505050565b8342111561158c576040517f08c379a0000000000000000000000000000000000000000000000000000000008152600401611583906147d0565b60405180910390fd5b60007f6e71edae12b1b97f4d1f60370fef10105fa2faae0126114a169c64845d6126c98888886115bb8c612765565b896040516020016115d1969594939291906144f5565b60405160208183030381529060405280519060200120905060006115f482612720565b905060006116048287878761273a565b90508973ffffffffffffffffffffffffffffffffffffffff168173ffffffffffffffffffffffffffffffffffffffff1614611674576040517f08c379a000000000000000000000000000000000000000000000000000000000815260040161166b90614910565b60405180910390fd5b61167f8a8a8a6118d5565b50505050505050505050565b6000603460008473ffffffffffffffffffffffffffffffffffffffff1673ffffffffffffffffffffffffffffffffffffffff16815260200190815260200160002060008373ffffffffffffffffffffffffffffffffffffffff1673ffffffffffffffffffffffffffffffffffffffff16815260200190815260200160002054905092915050565b61171a6139b9565b61013160008473ffffffffffffffffffffffffffffffffffffffff1673ffffffffffffffffffffffffffffffffffffffff1681526020019081526020016000208263ffffffff1681548110611798577f4e487b7100000000000000000000000000000000000000000000000000000000600052603260045260246000fd5b906000526020600020016040518060400160405290816000820160009054906101000a900463ffffffff1663ffffffff1663ffffffff1681526020016000820160049054906101000a90047bffffffffffffffffffffffffffffffffffffffffffffffffffffffff167bffffffffffffffffffffffffffffffffffffffffffffffffffffffff167bffffffffffffffffffffffffffffffffffffffffffffffffffffffff1681525050905092915050565b611851612127565b600073ffffffffffffffffffffffffffffffffffffffff168173ffffffffffffffffffffffffffffffffffffffff1614156118c1576040517f08c379a00000000000000000000000000000000000000000000000000000000081526004016118b890614750565b60405180910390fd5b6118ca81612384565b50565b600033905090565b600073ffffffffffffffffffffffffffffffffffffffff168373ffffffffffffffffffffffffffffffffffffffff161415611945576040517f08c379a000000000000000000000000000000000000000000000000000000000815260040161193c90614a10565b60405180910390fd5b600073ffffffffffffffffffffffffffffffffffffffff168273ffffffffffffffffffffffffffffffffffffffff1614156119b5576040517f08c379a00000000000000000000000000000000000000000000000000000000081526004016119ac90614770565b60405180910390fd5b80603460008573ffffffffffffffffffffffffffffffffffffffff1673ffffffffffffffffffffffffffffffffffffffff16815260200190815260200160002060008473ffffffffffffffffffffffffffffffffffffffff1673ffffffffffffffffffffffffffffffffffffffff168152602001908152602001600020819055508173ffffffffffffffffffffffffffffffffffffffff168373ffffffffffffffffffffffffffffffffffffffff167f8c5be1e5ebec7d5bd14f71427d1e84f3dd0314c0f7b2291e5b200ac8c7c3b92583604051611a939190614aab565b60405180910390a3505050565b6000611aac848461168b565b90507fffffffffffffffffffffffffffffffffffffffffffffffffffffffffffffffff8114611b265781811015611b18576040517f08c379a0000000000000000000000000000000000000000000000000000000008152600401611b0f906147b0565b60405180910390fd5b611b2584848484036118d5565b5b50505050565b600073ffffffffffffffffffffffffffffffffffffffff168373ffffffffffffffffffffffffffffffffffffffff161415611b9c576040517f08c379a0000000000000000000000000000000000000000000000000000000008152600401611b93906149d0565b60405180910390fd5b600073ffffffffffffffffffffffffffffffffffffffff168273ffffffffffffffffffffffffffffffffffffffff161415611c0c576040517f08c379a0000000000000000000000000000000000000000000000000000000008152600401611c0390614690565b60405180910390fd5b611c178383836127c3565b6000603360008573ffffffffffffffffffffffffffffffffffffffff1673ffffffffffffffffffffffffffffffffffffffff16815260200190815260200160002054905081811015611c9e576040517f08c379a0000000000000000000000000000000000000000000000000000000008152600401611c95906147f0565b60405180910390fd5b818103603360008673ffffffffffffffffffffffffffffffffffffffff1673ffffffffffffffffffffffffffffffffffffffff1681526020019081526020016000208190555081603360008573ffffffffffffffffffffffffffffffffffffffff1673ffffffffffffffffffffffffffffffffffffffff1681526020019081526020016000206000828254611d339190614bb8565b925050819055508273ffffffffffffffffffffffffffffffffffffffff168473ffffffffffffffffffffffffffffffffffffffff167fddf252ad1be2c89b69c2b068fc378daa952ba7f163c4a11628f55a4df523b3ef84604051611d979190614aab565b60405180910390a3611daa8484846127db565b50505050565b6000611deb7f8b73c3c69bb8fe3d512ecc4cf759cc79239f7b179b0ffacaa9a75d522b39400f611dde6127eb565b611de66127f5565b6127ff565b905090565b6000611e1e7f360894a13ba1a3210667c828492db98dca3e2076cc3735a920a3ca505d382bbc60001b612839565b60000160009054906101000a900473ffffffffffffffffffffffffffffffffffffffff16905090565b611e4f612127565b50565b611e7e7f4910fdfa16fed3260ed0e7147f7cc6da11a60208b5b9406d12a635614ffd914360001b612843565b60000160009054906101000a900460ff1615611ea257611e9d8361284d565b611fca565b8273ffffffffffffffffffffffffffffffffffffffff166352d1902d6040518163ffffffff1660e01b815260040160206040518083038186803b158015611ee857600080fd5b505afa925050508015611f1957506040513d601f19601f82011682018060405250810190611f169190613e27565b60015b611f58576040517f08c379a0000000000000000000000000000000000000000000000000000000008152600401611f4f906148f0565b60405180910390fd5b7f360894a13ba1a3210667c828492db98dca3e2076cc3735a920a3ca505d382bbc60001b8114611fbd576040517f08c379a0000000000000000000000000000000000000000000000000000000008152600401611fb490614890565b60405180910390fd5b50611fc9838383612906565b5b505050565b6000808380549050905060005b81811015612074576000611ff08284612932565b90508486828154811061202c577f4e487b7100000000000000000000000000000000000000000000000000000000600052603260045260246000fd5b9060005260206000200160000160009054906101000a900463ffffffff1663ffffffff16111561205e5780925061206e565b60018161206b9190614bb8565b91505b50611fdc565b600082146120fc578460018361208a9190614c3f565b815481106120c1577f4e487b7100000000000000000000000000000000000000000000000000000000600052603260045260246000fd5b9060005260206000200160000160049054906101000a90047bffffffffffffffffffffffffffffffffffffffffffffffffffffffff166120ff565b60005b7bffffffffffffffffffffffffffffffffffffffffffffffffffffffff169250505092915050565b61212f6118cd565b73ffffffffffffffffffffffffffffffffffffffff1661214d61115f565b73ffffffffffffffffffffffffffffffffffffffff16146121a3576040517f08c379a000000000000000000000000000000000000000000000000000000000815260040161219a90614970565b60405180910390fd5b565b6121ad612958565b6000606560006101000a81548160ff0219169083151502179055507f5db9ee0a495bf2e6ff9c91a7834c1ba4fdd244a5e8aa4e537bd38aeae4b073aa6121f16118cd565b6040516121fe91906144a4565b60405180910390a1565b61221282826129a1565b5050565b600061222183610dae565b9050600061222e84610e98565b90508261013060008673ffffffffffffffffffffffffffffffffffffffff1673ffffffffffffffffffffffffffffffffffffffff16815260200190815260200160002060006101000a81548173ffffffffffffffffffffffffffffffffffffffff021916908373ffffffffffffffffffffffffffffffffffffffff1602179055508273ffffffffffffffffffffffffffffffffffffffff168273ffffffffffffffffffffffffffffffffffffffff168573ffffffffffffffffffffffffffffffffffffffff167f3134e8a2e6d97e929a7e54011ea5485d7d196dd5f0ba4d4ef95803e8e3fc257f60405160405180910390a461232b828483612a2f565b50505050565b600063ffffffff801682111561237c576040517f08c379a0000000000000000000000000000000000000000000000000000000008152600401612373906149f0565b60405180910390fd5b819050919050565b6000609760009054906101000a900473ffffffffffffffffffffffffffffffffffffffff16905081609760006101000a81548173ffffffffffffffffffffffffffffffffffffffff021916908373ffffffffffffffffffffffffffffffffffffffff1602179055508173ffffffffffffffffffffffffffffffffffffffff168173ffffffffffffffffffffffffffffffffffffffff167f8be0079c531659141344cd1fd0a4f28419497f9722a3daafe3b4186f6b6457e060405160405180910390a35050565b600081600001549050919050565b6000808273ffffffffffffffffffffffffffffffffffffffff163b119050919050565b600060019054906101000a900460ff166124ca576040517f08c379a00000000000000000000000000000000000000000000000000000000081526004016124c190614a30565b60405180910390fd5b6124d48282612c2a565b5050565b600060019054906101000a900460ff16612527576040517f08c379a000000000000000000000000000000000000000000000000000000000815260040161251e90614a30565b60405180910390fd5b61252f612cab565b565b600060019054906101000a900460ff16612580576040517f08c379a000000000000000000000000000000000000000000000000000000000815260040161257790614a30565b60405180910390fd5b612588612d17565b565b600060019054906101000a900460ff166125d9576040517f08c379a00000000000000000000000000000000000000000000000000000000081526004016125d090614a30565b60405180910390fd5b612618816040518060400160405280600181526020017f3100000000000000000000000000000000000000000000000000000000000000815250612d78565b50565b600060019054906101000a900460ff1661266a576040517f08c379a000000000000000000000000000000000000000000000000000000000815260040161266190614a30565b60405180910390fd5b565b600060019054906101000a900460ff166126bb576040517f08c379a00000000000000000000000000000000000000000000000000000000081526004016126b290614a30565b60405180910390fd5b565b6126c5612df3565b6001606560006101000a81548160ff0219169083151502179055507f62e78cea01bee320cd4e420270b5ea74000d11b0c9f74754ebdbfc544b05a2586127096118cd565b60405161271691906144a4565b60405180910390a1565b600061273361272d611db0565b83612e3d565b9050919050565b600080600061274b87878787612e70565b9150915061275881612f7d565b8192505050949350505050565b60008060fd60008473ffffffffffffffffffffffffffffffffffffffff1673ffffffffffffffffffffffffffffffffffffffff16815260200190815260200160002090506127b28161244a565b91506127bd816132ce565b50919050565b6127cb612df3565b6127d68383836132e4565b505050565b6127e68383836132e9565b505050565b600060c954905090565b600060ca54905090565b6000838383463060405160200161281a95949392919061459b565b6040516020818303038152906040528051906020012090509392505050565b6000819050919050565b6000819050919050565b61285681612458565b612895576040517f08c379a000000000000000000000000000000000000000000000000000000000815260040161288c90614930565b60405180910390fd5b806128c27f360894a13ba1a3210667c828492db98dca3e2076cc3735a920a3ca505d382bbc60001b612839565b60000160006101000a81548173ffffffffffffffffffffffffffffffffffffffff021916908373ffffffffffffffffffffffffffffffffffffffff16021790555050565b61290f83613314565b60008251118061291c5750805b1561292d5761292b8383613363565b505b505050565b600060028284186129439190614c0e565b8284166129509190614bb8565b905092915050565b612960610e2c565b61299f576040517f08c379a0000000000000000000000000000000000000000000000000000000008152600401612996906146d0565b60405180910390fd5b565b6129ab8282613447565b6129b36135a8565b7bffffffffffffffffffffffffffffffffffffffffffffffffffffffff166129d96108c4565b1115612a1a576040517f08c379a0000000000000000000000000000000000000000000000000000000008152600401612a1190614950565b60405180910390fd5b612a296101326135cc836135e2565b50505050565b8173ffffffffffffffffffffffffffffffffffffffff168373ffffffffffffffffffffffffffffffffffffffff1614158015612a6b5750600081115b15612c2557600073ffffffffffffffffffffffffffffffffffffffff168373ffffffffffffffffffffffffffffffffffffffff1614612b4a57600080612af361013160008773ffffffffffffffffffffffffffffffffffffffff1673ffffffffffffffffffffffffffffffffffffffff1681526020019081526020016000206138cc856135e2565b915091508473ffffffffffffffffffffffffffffffffffffffff167fdec2bacdd2f05b59de34da9b523dff8be42e5e38e818c82fdb0bae774387a7248383604051612b3f929190614ac6565b60405180910390a250505b600073ffffffffffffffffffffffffffffffffffffffff168273ffffffffffffffffffffffffffffffffffffffff1614612c2457600080612bcd61013160008673ffffffffffffffffffffffffffffffffffffffff1673ffffffffffffffffffffffffffffffffffffffff1681526020019081526020016000206135cc856135e2565b915091508373ffffffffffffffffffffffffffffffffffffffff167fdec2bacdd2f05b59de34da9b523dff8be42e5e38e818c82fdb0bae774387a7248383604051612c19929190614ac6565b60405180910390a250505b5b505050565b600060019054906101000a900460ff16612c79576040517f08c379a0000000000000000000000000000000000000000000000000000000008152600401612c7090614a30565b60405180910390fd5b8160369080519060200190612c8f9291906139f7565b508060379080519060200190612ca69291906139f7565b505050565b600060019054906101000a900460ff16612cfa576040517f08c379a0000000000000000000000000000000000000000000000000000000008152600401612cf190614a30565b60405180910390fd5b6000606560006101000a81548160ff021916908315150217905550565b600060019054906101000a900460ff16612d66576040517f08c379a0000000000000000000000000000000000000000000000000000000008152600401612d5d90614a30565b60405180910390fd5b612d76612d716118cd565b612384565b565b600060019054906101000a900460ff16612dc7576040517f08c379a0000000000000000000000000000000000000000000000000000000008152600401612dbe90614a30565b60405180910390fd5b6000828051906020012090506000828051906020012090508160c9819055508060ca8190555050505050565b612dfb610e2c565b15612e3b576040517f08c379a0000000000000000000000000000000000000000000000000000000008152600401612e3290614870565b60405180910390fd5b565b60008282604051602001612e5292919061446d565b60405160208183030381529060405280519060200120905092915050565b6000807f7fffffffffffffffffffffffffffffff5d576e7357a4501ddfe92f46681b20a08360001c1115612eab576000600391509150612f74565b601b8560ff1614158015612ec35750601c8560ff1614155b15612ed5576000600491509150612f74565b600060018787878760405160008152602001604052604051612efa94939291906145ee565b6020604051602081039080840390855afa158015612f1c573d6000803e3d6000fd5b505050602060405103519050600073ffffffffffffffffffffffffffffffffffffffff168173ffffffffffffffffffffffffffffffffffffffff161415612f6b57600060019250925050612f74565b80600092509250505b94509492505050565b60006004811115612fb7577f4e487b7100000000000000000000000000000000000000000000000000000000600052602160045260246000fd5b816004811115612ff0577f4e487b7100000000000000000000000000000000000000000000000000000000600052602160045260246000fd5b1415612ffb576132cb565b60016004811115613035577f4e487b7100000000000000000000000000000000000000000000000000000000600052602160045260246000fd5b81600481111561306e577f4e487b7100000000000000000000000000000000000000000000000000000000600052602160045260246000fd5b14156130af576040517f08c379a00000000000000000000000000000000000000000000000000000000081526004016130a690614670565b60405180910390fd5b600260048111156130e9577f4e487b7100000000000000000000000000000000000000000000000000000000600052602160045260246000fd5b816004811115613122577f4e487b7100000000000000000000000000000000000000000000000000000000600052602160045260246000fd5b1415613163576040517f08c379a000000000000000000000000000000000000000000000000000000000815260040161315a90614710565b60405180910390fd5b6003600481111561319d577f4e487b7100000000000000000000000000000000000000000000000000000000600052602160045260246000fd5b8160048111156131d6577f4e487b7100000000000000000000000000000000000000000000000000000000600052602160045260246000fd5b1415613217576040517f08c379a000000000000000000000000000000000000000000000000000000000815260040161320e90614810565b60405180910390fd5b600480811115613250577f4e487b7100000000000000000000000000000000000000000000000000000000600052602160045260246000fd5b816004811115613289577f4e487b7100000000000000000000000000000000000000000000000000000000600052602160045260246000fd5b14156132ca576040517f08c379a00000000000000000000000000000000000000000000000000000000081526004016132c1906148d0565b60405180910390fd5b5b50565b6001816000016000828254019250508190555050565b505050565b6132f48383836138e2565b61330f61330084610dae565b61330984610dae565b83612a2f565b505050565b61331d8161284d565b8073ffffffffffffffffffffffffffffffffffffffff167fbc7cd75a20ee27fd9adebab32041f755214dbc6bffa90cc0225b39da2e5c2d3b60405160405180910390a250565b606061336e83612458565b6133ad576040517f08c379a00000000000000000000000000000000000000000000000000000000081526004016133a4906149b0565b60405180910390fd5b6000808473ffffffffffffffffffffffffffffffffffffffff16846040516133d59190614456565b600060405180830381855af49150503d8060008114613410576040519150601f19603f3d011682016040523d82523d6000602084013e613415565b606091505b509150915061343d828260405180606001604052806027815260200161579c602791396138e7565b9250505092915050565b600073ffffffffffffffffffffffffffffffffffffffff168273ffffffffffffffffffffffffffffffffffffffff1614156134b7576040517f08c379a00000000000000000000000000000000000000000000000000000000081526004016134ae90614a70565b60405180910390fd5b6134c3600083836127c3565b80603560008282546134d59190614bb8565b9250508190555080603360008473ffffffffffffffffffffffffffffffffffffffff1673ffffffffffffffffffffffffffffffffffffffff168152602001908152602001600020600082825461352b9190614bb8565b925050819055508173ffffffffffffffffffffffffffffffffffffffff16600073ffffffffffffffffffffffffffffffffffffffff167fddf252ad1be2c89b69c2b068fc378daa952ba7f163c4a11628f55a4df523b3ef836040516135909190614aab565b60405180910390a36135a4600083836127db565b5050565b60007bffffffffffffffffffffffffffffffffffffffffffffffffffffffff905090565b600081836135da9190614bb8565b905092915050565b6000806000858054905090506000811461367657856001826136049190614c3f565b8154811061363b577f4e487b7100000000000000000000000000000000000000000000000000000000600052603260045260246000fd5b9060005260206000200160000160049054906101000a90047bffffffffffffffffffffffffffffffffffffffffffffffffffffffff16613679565b60005b7bffffffffffffffffffffffffffffffffffffffffffffffffffffffff1692506136a783858763ffffffff16565b9150600081118015613720575043866001836136c39190614c3f565b815481106136fa577f4e487b7100000000000000000000000000000000000000000000000000000000600052603260045260246000fd5b9060005260206000200160000160009054906101000a900463ffffffff1663ffffffff16145b156137d35761372e8261394e565b8660018361373c9190614c3f565b81548110613773577f4e487b7100000000000000000000000000000000000000000000000000000000600052603260045260246000fd5b9060005260206000200160000160046101000a8154817bffffffffffffffffffffffffffffffffffffffffffffffffffffffff02191690837bffffffffffffffffffffffffffffffffffffffffffffffffffffffff1602179055506138c3565b8560405180604001604052806137e843612331565b63ffffffff1681526020016137fc8561394e565b7bffffffffffffffffffffffffffffffffffffffffffffffffffffffff168152509080600181540180825580915050600190039060005260206000200160009091909190915060008201518160000160006101000a81548163ffffffff021916908363ffffffff16021790555060208201518160000160046101000a8154817bffffffffffffffffffffffffffffffffffffffffffffffffffffffff02191690837bffffffffffffffffffffffffffffffffffffffffffffffffffffffff16021790555050505b50935093915050565b600081836138da9190614c3f565b905092915050565b505050565b606083156138f757829050613947565b60008351111561390a5782518084602001fd5b816040517f08c379a000000000000000000000000000000000000000000000000000000000815260040161393e919061464e565b60405180910390fd5b9392505050565b60007bffffffffffffffffffffffffffffffffffffffffffffffffffffffff80168211156139b1576040517f08c379a00000000000000000000000000000000000000000000000000000000081526004016139a890614990565b60405180910390fd5b819050919050565b6040518060400160405280600063ffffffff16815260200160007bffffffffffffffffffffffffffffffffffffffffffffffffffffffff1681525090565b828054613a0390614d5e565b90600052602060002090601f016020900481019282613a255760008555613a6c565b82601f10613a3e57805160ff1916838001178555613a6c565b82800160010185558215613a6c579182015b82811115613a6b578251825591602001919060010190613a50565b5b509050613a799190613a7d565b5090565b5b80821115613a96576000816000905550600101613a7e565b5090565b6000613aad613aa884614b4a565b614b25565b905082815260208101848484011115613ac557600080fd5b613ad0848285614d1c565b509392505050565b600081359050613ae781615728565b92915050565b600081359050613afc8161573f565b92915050565b600081519050613b118161573f565b92915050565b600082601f830112613b2857600080fd5b8135613b38848260208601613a9a565b91505092915050565b600081359050613b5081615756565b92915050565b600081359050613b658161576d565b92915050565b600081359050613b7a81615784565b92915050565b600060208284031215613b9257600080fd5b6000613ba084828501613ad8565b91505092915050565b60008060408385031215613bbc57600080fd5b6000613bca85828601613ad8565b9250506020613bdb85828601613ad8565b9150509250929050565b600080600060608486031215613bfa57600080fd5b6000613c0886828701613ad8565b9350506020613c1986828701613ad8565b9250506040613c2a86828701613b41565b9150509250925092565b600080600080600080600060e0888a031215613c4f57600080fd5b6000613c5d8a828b01613ad8565b9750506020613c6e8a828b01613ad8565b9650506040613c7f8a828b01613b41565b9550506060613c908a828b01613b41565b9450506080613ca18a828b01613b6b565b93505060a0613cb28a828b01613aed565b92505060c0613cc38a828b01613aed565b91505092959891949750929550565b60008060408385031215613ce557600080fd5b6000613cf385828601613ad8565b925050602083013567ffffffffffffffff811115613d1057600080fd5b613d1c85828601613b17565b9150509250929050565b60008060408385031215613d3957600080fd5b6000613d4785828601613ad8565b9250506020613d5885828601613b41565b9150509250929050565b60008060008060008060c08789031215613d7b57600080fd5b6000613d8989828a01613ad8565b9650506020613d9a89828a01613b41565b9550506040613dab89828a01613b41565b9450506060613dbc89828a01613b6b565b9350506080613dcd89828a01613aed565b92505060a0613dde89828a01613aed565b9150509295509295509295565b60008060408385031215613dfe57600080fd5b6000613e0c85828601613ad8565b9250506020613e1d85828601613b56565b9150509250929050565b600060208284031215613e3957600080fd5b6000613e4784828501613b02565b91505092915050565b600060208284031215613e6257600080fd5b6000613e7084828501613b41565b91505092915050565b613e8281614c73565b82525050565b613e9181614c85565b82525050565b613ea081614c91565b82525050565b613eb7613eb282614c91565b614dc1565b82525050565b6000613ec882614b7b565b613ed28185614b91565b9350613ee2818560208601614d2b565b80840191505092915050565b613ef781614d0a565b82525050565b6000613f0882614b86565b613f128185614b9c565b9350613f22818560208601614d2b565b613f2b81614e87565b840191505092915050565b6000613f43601883614b9c565b9150613f4e82614e98565b602082019050919050565b6000613f66602383614b9c565b9150613f7182614ec1565b604082019050919050565b6000613f89601f83614b9c565b9150613f9482614f10565b602082019050919050565b6000613fac601483614b9c565b9150613fb782614f39565b602082019050919050565b6000613fcf601d83614b9c565b9150613fda82614f62565b602082019050919050565b6000613ff2601f83614b9c565b9150613ffd82614f8b565b602082019050919050565b6000614015601983614b9c565b915061402082614fb4565b602082019050919050565b6000614038602683614b9c565b915061404382614fdd565b604082019050919050565b600061405b602283614b9c565b91506140668261502c565b604082019050919050565b600061407e600283614bad565b91506140898261507b565b600282019050919050565b60006140a1602c83614b9c565b91506140ac826150a4565b604082019050919050565b60006140c4601d83614b9c565b91506140cf826150f3565b602082019050919050565b60006140e7601d83614b9c565b91506140f28261511c565b602082019050919050565b600061410a602683614b9c565b915061411582615145565b604082019050919050565b600061412d602283614b9c565b915061413882615194565b604082019050919050565b6000614150602c83614b9c565b915061415b826151e3565b604082019050919050565b6000614173603883614b9c565b915061417e82615232565b604082019050919050565b6000614196601083614b9c565b91506141a182615281565b602082019050919050565b60006141b9602983614b9c565b91506141c4826152aa565b604082019050919050565b60006141dc602e83614b9c565b91506141e7826152f9565b604082019050919050565b60006141ff602283614b9c565b915061420a82615348565b604082019050919050565b6000614222602e83614b9c565b915061422d82615397565b604082019050919050565b6000614245601e83614b9c565b9150614250826153e6565b602082019050919050565b6000614268602d83614b9c565b91506142738261540f565b604082019050919050565b600061428b603083614b9c565b91506142968261545e565b604082019050919050565b60006142ae602083614b9c565b91506142b9826154ad565b602082019050919050565b60006142d1602783614b9c565b91506142dc826154d6565b604082019050919050565b60006142f4602683614b9c565b91506142ff82615525565b604082019050919050565b6000614317602583614b9c565b915061432282615574565b604082019050919050565b600061433a602683614b9c565b9150614345826155c3565b604082019050919050565b600061435d602483614b9c565b915061436882615612565b604082019050919050565b6000614380602b83614b9c565b915061438b82615661565b604082019050919050565b60006143a3602583614b9c565b91506143ae826156b0565b604082019050919050565b60006143c6601f83614b9c565b91506143d1826156ff565b602082019050919050565b6040820160008201516143f26000850182614429565b506020820151614405602085018261440b565b50505050565b61441481614cbb565b82525050565b61442381614ce3565b82525050565b61443281614ced565b82525050565b61444181614ced565b82525050565b61445081614cfd565b82525050565b60006144628284613ebd565b915081905092915050565b600061447882614071565b91506144848285613ea6565b6020820191506144948284613ea6565b6020820191508190509392505050565b60006020820190506144b96000830184613e79565b92915050565b60006020820190506144d46000830184613e88565b92915050565b60006020820190506144ef6000830184613e97565b92915050565b600060c08201905061450a6000830189613e97565b6145176020830188613e79565b6145246040830187613e79565b614531606083018661441a565b61453e608083018561441a565b61454b60a083018461441a565b979650505050505050565b600060808201905061456b6000830187613e97565b6145786020830186613e79565b614585604083018561441a565b614592606083018461441a565b95945050505050565b600060a0820190506145b06000830188613e97565b6145bd6020830187613e97565b6145ca6040830186613e97565b6145d7606083018561441a565b6145e46080830184613e79565b9695505050505050565b60006080820190506146036000830187613e97565b6146106020830186614447565b61461d6040830185613e97565b61462a6060830184613e97565b95945050505050565b60006020820190506146486000830184613eee565b92915050565b600060208201905081810360008301526146688184613efd565b905092915050565b6000602082019050818103600083015261468981613f36565b9050919050565b600060208201905081810360008301526146a981613f59565b9050919050565b600060208201905081810360008301526146c981613f7c565b9050919050565b600060208201905081810360008301526146e981613f9f565b9050919050565b6000602082019050818103600083015261470981613fc2565b9050919050565b6000602082019050818103600083015261472981613fe5565b9050919050565b6000602082019050818103600083015261474981614008565b9050919050565b600060208201905081810360008301526147698161402b565b9050919050565b600060208201905081810360008301526147898161404e565b9050919050565b600060208201905081810360008301526147a981614094565b9050919050565b600060208201905081810360008301526147c9816140b7565b9050919050565b600060208201905081810360008301526147e9816140da565b9050919050565b60006020820190508181036000830152614809816140fd565b9050919050565b6000602082019050818103600083015261482981614120565b9050919050565b6000602082019050818103600083015261484981614143565b9050919050565b6000602082019050818103600083015261486981614166565b9050919050565b6000602082019050818103600083015261488981614189565b9050919050565b600060208201905081810360008301526148a9816141ac565b9050919050565b600060208201905081810360008301526148c9816141cf565b9050919050565b600060208201905081810360008301526148e9816141f2565b9050919050565b6000602082019050818103600083015261490981614215565b9050919050565b6000602082019050818103600083015261492981614238565b9050919050565b600060208201905081810360008301526149498161425b565b9050919050565b600060208201905081810360008301526149698161427e565b9050919050565b60006020820190508181036000830152614989816142a1565b9050919050565b600060208201905081810360008301526149a9816142c4565b9050919050565b600060208201905081810360008301526149c9816142e7565b9050919050565b600060208201905081810360008301526149e98161430a565b9050919050565b60006020820190508181036000830152614a098161432d565b9050919050565b60006020820190508181036000830152614a2981614350565b9050919050565b60006020820190508181036000830152614a4981614373565b9050919050565b60006020820190508181036000830152614a6981614396565b9050919050565b60006020820190508181036000830152614a89816143b9565b9050919050565b6000604082019050614aa560008301846143dc565b92915050565b6000602082019050614ac0600083018461441a565b92915050565b6000604082019050614adb600083018561441a565b614ae8602083018461441a565b9392505050565b6000602082019050614b046000830184614438565b92915050565b6000602082019050614b1f6000830184614447565b92915050565b6000614b2f614b40565b9050614b3b8282614d90565b919050565b6000604051905090565b600067ffffffffffffffff821115614b6557614b64614e58565b5b614b6e82614e87565b9050602081019050919050565b600081519050919050565b600081519050919050565b600081905092915050565b600082825260208201905092915050565b600081905092915050565b6000614bc382614ce3565b9150614bce83614ce3565b9250827fffffffffffffffffffffffffffffffffffffffffffffffffffffffffffffffff03821115614c0357614c02614dcb565b5b828201905092915050565b6000614c1982614ce3565b9150614c2483614ce3565b925082614c3457614c33614dfa565b5b828204905092915050565b6000614c4a82614ce3565b9150614c5583614ce3565b925082821015614c6857614c67614dcb565b5b828203905092915050565b6000614c7e82614c9b565b9050919050565b60008115159050919050565b6000819050919050565b600073ffffffffffffffffffffffffffffffffffffffff82169050919050565b60007bffffffffffffffffffffffffffffffffffffffffffffffffffffffff82169050919050565b6000819050919050565b600063ffffffff82169050919050565b600060ff82169050919050565b6000614d1582614cfd565b9050919050565b82818337600083830152505050565b60005b83811015614d49578082015181840152602081019050614d2e565b83811115614d58576000848401525b50505050565b60006002820490506001821680614d7657607f821691505b60208210811415614d8a57614d89614e29565b5b50919050565b614d9982614e87565b810181811067ffffffffffffffff82111715614db857614db7614e58565b5b80604052505050565b6000819050919050565b7f4e487b7100000000000000000000000000000000000000000000000000000000600052601160045260246000fd5b7f4e487b7100000000000000000000000000000000000000000000000000000000600052601260045260246000fd5b7f4e487b7100000000000000000000000000000000000000000000000000000000600052602260045260246000fd5b7f4e487b7100000000000000000000000000000000000000000000000000000000600052604160045260246000fd5b6000601f19601f8301169050919050565b7f45434453413a20696e76616c6964207369676e61747572650000000000000000600082015250565b7f45524332303a207472616e7366657220746f20746865207a65726f206164647260008201527f6573730000000000000000000000000000000000000000000000000000000000602082015250565b7f4552433230566f7465733a20626c6f636b206e6f7420796574206d696e656400600082015250565b7f5061757361626c653a206e6f7420706175736564000000000000000000000000600082015250565b7f4552433230566f7465733a207369676e61747572652065787069726564000000600082015250565b7f45434453413a20696e76616c6964207369676e6174757265206c656e67746800600082015250565b7f4552433230566f7465733a20696e76616c6964206e6f6e636500000000000000600082015250565b7f4f776e61626c653a206e6577206f776e657220697320746865207a65726f206160008201527f6464726573730000000000000000000000000000000000000000000000000000602082015250565b7f45524332303a20617070726f766520746f20746865207a65726f20616464726560008201527f7373000000000000000000000000000000000000000000000000000000000000602082015250565b7f1901000000000000000000000000000000000000000000000000000000000000600082015250565b7f46756e6374696f6e206d7573742062652063616c6c6564207468726f7567682060008201527f64656c656761746563616c6c0000000000000000000000000000000000000000602082015250565b7f45524332303a20696e73756666696369656e7420616c6c6f77616e6365000000600082015250565b7f45524332305065726d69743a206578706972656420646561646c696e65000000600082015250565b7f45524332303a207472616e7366657220616d6f756e742065786365656473206260008201527f616c616e63650000000000000000000000000000000000000000000000000000602082015250565b7f45434453413a20696e76616c6964207369676e6174757265202773272076616c60008201527f7565000000000000000000000000000000000000000000000000000000000000602082015250565b7f46756e6374696f6e206d7573742062652063616c6c6564207468726f7567682060008201527f6163746976652070726f78790000000000000000000000000000000000000000602082015250565b7f555550535570677261646561626c653a206d757374206e6f742062652063616c60008201527f6c6564207468726f7567682064656c656761746563616c6c0000000000000000602082015250565b7f5061757361626c653a2070617573656400000000000000000000000000000000600082015250565b7f45524331393637557067726164653a20756e737570706f727465642070726f7860008201527f6961626c65555549440000000000000000000000000000000000000000000000602082015250565b7f496e697469616c697a61626c653a20636f6e747261637420697320616c72656160008201527f647920696e697469616c697a6564000000000000000000000000000000000000602082015250565b7f45434453413a20696e76616c6964207369676e6174757265202776272076616c60008201527f7565000000000000000000000000000000000000000000000000000000000000602082015250565b7f45524331393637557067726164653a206e657720696d706c656d656e7461746960008201527f6f6e206973206e6f742055555053000000000000000000000000000000000000602082015250565b7f45524332305065726d69743a20696e76616c6964207369676e61747572650000600082015250565b7f455243313936373a206e657720696d706c656d656e746174696f6e206973206e60008201527f6f74206120636f6e747261637400000000000000000000000000000000000000602082015250565b7f4552433230566f7465733a20746f74616c20737570706c79207269736b73206f60008201527f766572666c6f77696e6720766f74657300000000000000000000000000000000602082015250565b7f4f776e61626c653a2063616c6c6572206973206e6f7420746865206f776e6572600082015250565b7f53616665436173743a2076616c756520646f65736e27742066697420696e203260008201527f3234206269747300000000000000000000000000000000000000000000000000602082015250565b7f416464726573733a2064656c65676174652063616c6c20746f206e6f6e2d636f60008201527f6e74726163740000000000000000000000000000000000000000000000000000602082015250565b7f45524332303a207472616e736665722066726f6d20746865207a65726f20616460008201527f6472657373000000000000000000000000000000000000000000000000000000602082015250565b7f53616665436173743a2076616c756520646f65736e27742066697420696e203360008201527f3220626974730000000000000000000000000000000000000000000000000000602082015250565b7f45524332303a20617070726f76652066726f6d20746865207a65726f2061646460008201527f7265737300000000000000000000000000000000000000000000000000000000602082015250565b7f496e697469616c697a61626c653a20636f6e7472616374206973206e6f74206960008201527f6e697469616c697a696e67000000000000000000000000000000000000000000602082015250565b7f45524332303a2064656372656173656420616c6c6f77616e63652062656c6f7760008201527f207a65726f000000000000000000000000000000000000000000000000000000602082015250565b7f45524332303a206d696e7420746f20746865207a65726f206164647265737300600082015250565b61573181614c73565b811461573c57600080fd5b50565b61574881614c91565b811461575357600080fd5b50565b61575f81614ce3565b811461576a57600080fd5b50565b61577681614ced565b811461578157600080fd5b50565b61578d81614cfd565b811461579857600080fd5b5056fe416464726573733a206c6f772d6c6576656c2064656c65676174652063616c6c206661696c6564a26469706673582212203f6eeb751f0eaae1d3dc06c1686b237db09626180a5e2f12ad7a817ec771e17964736f6c63430008040033",
  "linkReferences": {},
  "deployedLinkReferences": {}
}