{
  "_format": "hh-sol-artifact-1",
  "contractName": "VotingTokenV2",
  "sourceName": "contracts/VotingTokenV2.sol",
  "abi": [
    {
      "anonymous": false,
      "inputs": [
        {
          "indexed": false,
          "internalType": "address",
          "name": "previousAdmin",
          "type": "address"
        },
        {
          "indexed": false,
          "internalType": "address",
          "name": "newAdmin",
          "type": "address"
        }
      ],
      "name": "AdminChanged",
      "type": "event"
    },
    {
      "anonymous": false,
      "inputs": [
        {
          "indexed": true,
          "internalType": "address",
          "name": "owner",
          "type": "address"
        },
        {
          "indexed": true,
          "internalType": "address",
          "name": "spender",
          "type": "address"
        },
        {
          "indexed": false,
          "internalType": "uint256",
          "name": "value",
          "type": "uint256"
        }
      ],
      "name": "Approval",
      "type": "event"
    },
    {
      "anonymous": false,
      "inputs": [
        {
          "indexed": true,
          "internalType": "address",
          "name": "beacon",
          "type": "address"
        }
      ],
      "name": "BeaconUpgraded",
      "type": "event"
    },
    {
      "anonymous": false,
      "inputs": [
        {
          "indexed": true,
          "internalType": "address",
          "name": "delegator",
          "type": "address"
        },
        {
          "indexed": true,
          "internalType": "address",
          "name": "fromDelegate",
          "type": "address"
        },
        {
          "indexed": true,
          "internalType": "address",
          "name": "toDelegate",
          "type": "address"
        }
      ],
      "name": "DelegateChanged",
      "type": "event"
    },
    {
      "anonymous": false,
      "inputs": [
        {
          "indexed": true,
          "internalType": "address",
          "name": "delegate",
          "type": "address"
        },
        {
          "indexed": false,
          "internalType": "uint256",
          "name": "previousBalance",
          "type": "uint256"
        },
        {
          "indexed": false,
          "internalType": "uint256",
          "name": "newBalance",
          "type": "uint256"
        }
      ],
      "name": "DelegateVotesChanged",
      "type": "event"
    },
    {
      "anonymous": false,
      "inputs": [
        {
          "indexed": false,
          "internalType": "uint8",
          "name": "version",
          "type": "uint8"
        }
      ],
      "name": "Initialized",
      "type": "event"
    },
    {
      "anonymous": false,
      "inputs": [
        {
          "indexed": true,
          "internalType": "address",
          "name": "previousOwner",
          "type": "address"
        },
        {
          "indexed": true,
          "internalType": "address",
          "name": "newOwner",
          "type": "address"
        }
      ],
      "name": "OwnershipTransferred",
      "type": "event"
    },
    {
      "anonymous": false,
      "inputs": [
        {
          "indexed": false,
          "internalType": "address",
          "name": "account",
          "type": "address"
        }
      ],
      "name": "Paused",
      "type": "event"
    },
    {
      "anonymous": false,
      "inputs": [
        {
          "indexed": true,
          "internalType": "address",
          "name": "from",
          "type": "address"
        },
        {
          "indexed": true,
          "internalType": "address",
          "name": "to",
          "type": "address"
        },
        {
          "indexed": false,
          "internalType": "uint256",
          "name": "value",
          "type": "uint256"
        }
      ],
      "name": "Transfer",
      "type": "event"
    },
    {
      "anonymous": false,
      "inputs": [
        {
          "indexed": false,
          "internalType": "address",
          "name": "account",
          "type": "address"
        }
      ],
      "name": "Unpaused",
      "type": "event"
    },
    {
      "anonymous": false,
      "inputs": [
        {
          "indexed": true,
          "internalType": "address",
          "name": "implementation",
          "type": "address"
        }
      ],
      "name": "Upgraded",
      "type": "event"
    },
    {
      "inputs": [],
      "name": "DOMAIN_SEPARATOR",
      "outputs": [
        {
          "internalType": "bytes32",
          "name": "",
          "type": "bytes32"
        }
      ],
      "stateMutability": "view",
      "type": "function"
    },
    {
      "inputs": [
        {
          "internalType": "address",
          "name": "owner",
          "type": "address"
        },
        {
          "internalType": "address",
          "name": "spender",
          "type": "address"
        }
      ],
      "name": "allowance",
      "outputs": [
        {
          "internalType": "uint256",
          "name": "",
          "type": "uint256"
        }
      ],
      "stateMutability": "view",
      "type": "function"
    },
    {
      "inputs": [
        {
          "internalType": "address",
          "name": "spender",
          "type": "address"
        },
        {
          "internalType": "uint256",
          "name": "amount",
          "type": "uint256"
        }
      ],
      "name": "approve",
      "outputs": [
        {
          "internalType": "bool",
          "name": "",
          "type": "bool"
        }
      ],
      "stateMutability": "nonpayable",
      "type": "function"
    },
    {
      "inputs": [
        {
          "internalType": "address",
          "name": "account",
          "type": "address"
        }
      ],
      "name": "balanceOf",
      "outputs": [
        {
          "internalType": "uint256",
          "name": "",
          "type": "uint256"
        }
      ],
      "stateMutability": "view",
      "type": "function"
    },
    {
      "inputs": [
        {
          "internalType": "address",
          "name": "account",
          "type": "address"
        },
        {
          "internalType": "uint32",
          "name": "pos",
          "type": "uint32"
        }
      ],
      "name": "checkpoints",
      "outputs": [
        {
          "components": [
            {
              "internalType": "uint32",
              "name": "fromBlock",
              "type": "uint32"
            },
            {
              "internalType": "uint224",
              "name": "votes",
              "type": "uint224"
            }
          ],
          "internalType": "struct ERC20VotesUpgradeable.Checkpoint",
          "name": "",
          "type": "tuple"
        }
      ],
      "stateMutability": "view",
      "type": "function"
    },
    {
      "inputs": [],
      "name": "decimals",
      "outputs": [
        {
          "internalType": "uint8",
          "name": "",
          "type": "uint8"
        }
      ],
      "stateMutability": "view",
      "type": "function"
    },
    {
      "inputs": [
        {
          "internalType": "address",
          "name": "spender",
          "type": "address"
        },
        {
          "internalType": "uint256",
          "name": "subtractedValue",
          "type": "uint256"
        }
      ],
      "name": "decreaseAllowance",
      "outputs": [
        {
          "internalType": "bool",
          "name": "",
          "type": "bool"
        }
      ],
      "stateMutability": "nonpayable",
      "type": "function"
    },
    {
      "inputs": [
        {
          "internalType": "address",
          "name": "delegatee",
          "type": "address"
        }
      ],
      "name": "delegate",
      "outputs": [],
      "stateMutability": "nonpayable",
      "type": "function"
    },
    {
      "inputs": [
        {
          "internalType": "address",
          "name": "delegatee",
          "type": "address"
        },
        {
          "internalType": "uint256",
          "name": "nonce",
          "type": "uint256"
        },
        {
          "internalType": "uint256",
          "name": "expiry",
          "type": "uint256"
        },
        {
          "internalType": "uint8",
          "name": "v",
          "type": "uint8"
        },
        {
          "internalType": "bytes32",
          "name": "r",
          "type": "bytes32"
        },
        {
          "internalType": "bytes32",
          "name": "s",
          "type": "bytes32"
        }
      ],
      "name": "delegateBySig",
      "outputs": [],
      "stateMutability": "nonpayable",
      "type": "function"
    },
    {
      "inputs": [
        {
          "internalType": "address",
          "name": "account",
          "type": "address"
        }
      ],
      "name": "delegates",
      "outputs": [
        {
          "internalType": "address",
          "name": "",
          "type": "address"
        }
      ],
      "stateMutability": "view",
      "type": "function"
    },
    {
      "inputs": [
        {
          "internalType": "uint256",
          "name": "blockNumber",
          "type": "uint256"
        }
      ],
      "name": "getPastTotalSupply",
      "outputs": [
        {
          "internalType": "uint256",
          "name": "",
          "type": "uint256"
        }
      ],
      "stateMutability": "view",
      "type": "function"
    },
    {
      "inputs": [
        {
          "internalType": "address",
          "name": "account",
          "type": "address"
        },
        {
          "internalType": "uint256",
          "name": "blockNumber",
          "type": "uint256"
        }
      ],
      "name": "getPastVotes",
      "outputs": [
        {
          "internalType": "uint256",
          "name": "",
          "type": "uint256"
        }
      ],
      "stateMutability": "view",
      "type": "function"
    },
    {
      "inputs": [],
      "name": "getVersion",
      "outputs": [
        {
          "internalType": "uint256",
          "name": "",
          "type": "uint256"
        }
      ],
      "stateMutability": "pure",
      "type": "function"
    },
    {
      "inputs": [
        {
          "internalType": "address",
          "name": "account",
          "type": "address"
        }
      ],
      "name": "getVotes",
      "outputs": [
        {
          "internalType": "uint256",
          "name": "",
          "type": "uint256"
        }
      ],
      "stateMutability": "view",
      "type": "function"
    },
    {
      "inputs": [
        {
          "internalType": "address",
          "name": "spender",
          "type": "address"
        },
        {
          "internalType": "uint256",
          "name": "addedValue",
          "type": "uint256"
        }
      ],
      "name": "increaseAllowance",
      "outputs": [
        {
          "internalType": "bool",
          "name": "",
          "type": "bool"
        }
      ],
      "stateMutability": "nonpayable",
      "type": "function"
    },
    {
      "inputs": [],
      "name": "initialize",
      "outputs": [],
      "stateMutability": "nonpayable",
      "type": "function"
    },
    {
      "inputs": [
        {
          "internalType": "address",
          "name": "to",
          "type": "address"
        },
        {
          "internalType": "uint256",
          "name": "amount",
          "type": "uint256"
        }
      ],
      "name": "mint",
      "outputs": [],
      "stateMutability": "nonpayable",
      "type": "function"
    },
    {
      "inputs": [],
      "name": "name",
      "outputs": [
        {
          "internalType": "string",
          "name": "",
          "type": "string"
        }
      ],
      "stateMutability": "view",
      "type": "function"
    },
    {
      "inputs": [
        {
          "internalType": "address",
          "name": "owner",
          "type": "address"
        }
      ],
      "name": "nonces",
      "outputs": [
        {
          "internalType": "uint256",
          "name": "",
          "type": "uint256"
        }
      ],
      "stateMutability": "view",
      "type": "function"
    },
    {
      "inputs": [
        {
          "internalType": "address",
          "name": "account",
          "type": "address"
        }
      ],
      "name": "numCheckpoints",
      "outputs": [
        {
          "internalType": "uint32",
          "name": "",
          "type": "uint32"
        }
      ],
      "stateMutability": "view",
      "type": "function"
    },
    {
      "inputs": [],
      "name": "owner",
      "outputs": [
        {
          "internalType": "address",
          "name": "",
          "type": "address"
        }
      ],
      "stateMutability": "view",
      "type": "function"
    },
    {
      "inputs": [],
      "name": "pause",
      "outputs": [],
      "stateMutability": "nonpayable",
      "type": "function"
    },
    {
      "inputs": [],
      "name": "paused",
      "outputs": [
        {
          "internalType": "bool",
          "name": "",
          "type": "bool"
        }
      ],
      "stateMutability": "view",
      "type": "function"
    },
    {
      "inputs": [
        {
          "internalType": "address",
          "name": "owner",
          "type": "address"
        },
        {
          "internalType": "address",
          "name": "spender",
          "type": "address"
        },
        {
          "internalType": "uint256",
          "name": "value",
          "type": "uint256"
        },
        {
          "internalType": "uint256",
          "name": "deadline",
          "type": "uint256"
        },
        {
          "internalType": "uint8",
          "name": "v",
          "type": "uint8"
        },
        {
          "internalType": "bytes32",
          "name": "r",
          "type": "bytes32"
        },
        {
          "internalType": "bytes32",
          "name": "s",
          "type": "bytes32"
        }
      ],
      "name": "permit",
      "outputs": [],
      "stateMutability": "nonpayable",
      "type": "function"
    },
    {
      "inputs": [],
      "name": "proxiableUUID",
      "outputs": [
        {
          "internalType": "bytes32",
          "name": "",
          "type": "bytes32"
        }
      ],
      "stateMutability": "view",
      "type": "function"
    },
    {
      "inputs": [],
      "name": "renounceOwnership",
      "outputs": [],
      "stateMutability": "nonpayable",
      "type": "function"
    },
    {
      "inputs": [],
      "name": "symbol",
      "outputs": [
        {
          "internalType": "string",
          "name": "",
          "type": "string"
        }
      ],
      "stateMutability": "view",
      "type": "function"
    },
    {
      "inputs": [],
      "name": "totalSupply",
      "outputs": [
        {
          "internalType": "uint256",
          "name": "",
          "type": "uint256"
        }
      ],
      "stateMutability": "view",
      "type": "function"
    },
    {
      "inputs": [
        {
          "internalType": "address",
          "name": "to",
          "type": "address"
        },
        {
          "internalType": "uint256",
          "name": "amount",
          "type": "uint256"
        }
      ],
      "name": "transfer",
      "outputs": [
        {
          "internalType": "bool",
          "name": "",
          "type": "bool"
        }
      ],
      "stateMutability": "nonpayable",
      "type": "function"
    },
    {
      "inputs": [
        {
          "internalType": "address",
          "name": "from",
          "type": "address"
        },
        {
          "internalType": "address",
          "name": "to",
          "type": "address"
        },
        {
          "internalType": "uint256",
          "name": "amount",
          "type": "uint256"
        }
      ],
      "name": "transferFrom",
      "outputs": [
        {
          "internalType": "bool",
          "name": "",
          "type": "bool"
        }
      ],
      "stateMutability": "nonpayable",
      "type": "function"
    },
    {
      "inputs": [
        {
          "internalType": "address",
          "name": "newOwner",
          "type": "address"
        }
      ],
      "name": "transferOwnership",
      "outputs": [],
      "stateMutability": "nonpayable",
      "type": "function"
    },
    {
      "inputs": [],
      "name": "unpause",
      "outputs": [],
      "stateMutability": "nonpayable",
      "type": "function"
    },
    {
      "inputs": [
        {
          "internalType": "address",
          "name": "newImplementation",
          "type": "address"
        }
      ],
      "name": "upgradeTo",
      "outputs": [],
      "stateMutability": "nonpayable",
      "type": "function"
    },
    {
      "inputs": [
        {
          "internalType": "address",
          "name": "newImplementation",
          "type": "address"
        },
        {
          "internalType": "bytes",
          "name": "data",
          "type": "bytes"
        }
      ],
      "name": "upgradeToAndCall",
      "outputs": [],
      "stateMutability": "payable",
      "type": "function"
    }
  ],
  "bytecode": "0x60a06040523073ffffffffffffffffffffffffffffffffffffffff1660809073ffffffffffffffffffffffffffffffffffffffff1660601b8152503480156200004757600080fd5b50620000586200005e60201b60201c565b62000209565b600060019054906101000a900460ff1615620000b1576040517f08c379a0000000000000000000000000000000000000000000000000000000008152600401620000a8906200015d565b60405180910390fd5b60ff801660008054906101000a900460ff1660ff161015620001235760ff6000806101000a81548160ff021916908360ff1602179055507f7f26b83ff96e1f2b6a682f133852f6798a09c465da95921460cefb384740249860ff6040516200011a91906200017f565b60405180910390a15b565b6000620001346027836200019c565b91506200014182620001ba565b604082019050919050565b6200015781620001ad565b82525050565b60006020820190508181036000830152620001788162000125565b9050919050565b60006020820190506200019660008301846200014c565b92915050565b600082825260208201905092915050565b600060ff82169050919050565b7f496e697469616c697a61626c653a20636f6e747261637420697320696e69746960008201527f616c697a696e6700000000000000000000000000000000000000000000000000602082015250565b60805160601c6158376200024460003960008181610956015281816109e501528181610bf901528181610c880152610d3801526158376000f3fe6080604052600436106101f95760003560e01c80636fcfff451161010d57806395d89b41116100a0578063c3cda5201161006f578063c3cda52014610750578063d505accf14610779578063dd62ed3e146107a2578063f1127ed8146107df578063f2fde38b1461081c576101f9565b806395d89b411461066e5780639ab24eb014610699578063a457c2d7146106d6578063a9059cbb14610713576101f9565b80638129fc1c116100dc5780638129fc1c146105d85780638456cb59146105ef5780638da5cb5b146106065780638e539e8c14610631576101f9565b80636fcfff451461050a57806370a0823114610547578063715018a6146105845780637ecebe001461059b576101f9565b806339509351116101905780634f1ef2861161015f5780634f1ef2861461043257806352d1902d1461044e578063587cde1e146104795780635c19a95c146104b65780635c975abb146104df576101f9565b806339509351146103785780633a46b1a8146103b55780633f4ba83a146103f257806340c10f1914610409576101f9565b806323b872dd116101cc57806323b872dd146102bc578063313ce567146102f95780633644e515146103245780633659cfe61461034f576101f9565b806306fdde03146101fe578063095ea7b3146102295780630d8e6e2c1461026657806318160ddd14610291575b600080fd5b34801561020a57600080fd5b50610213610845565b604051610220919061468d565b60405180910390f35b34801561023557600080fd5b50610250600480360381019061024b9190613d65565b6108d7565b60405161025d91906144fe565b60405180910390f35b34801561027257600080fd5b5061027b6108fa565b6040516102889190614aea565b60405180910390f35b34801561029d57600080fd5b506102a6610903565b6040516102b39190614aea565b60405180910390f35b3480156102c857600080fd5b506102e360048036038101906102de9190613c24565b61090d565b6040516102f091906144fe565b60405180910390f35b34801561030557600080fd5b5061030e61093c565b60405161031b9190614b49565b60405180910390f35b34801561033057600080fd5b50610339610945565b6040516103469190614519565b60405180910390f35b34801561035b57600080fd5b5061037660048036038101906103719190613bbf565b610954565b005b34801561038457600080fd5b5061039f600480360381019061039a9190613d65565b610b03565b6040516103ac91906144fe565b60405180910390f35b3480156103c157600080fd5b506103dc60048036038101906103d79190613d65565b610b3a565b6040516103e99190614aea565b60405180910390f35b3480156103fe57600080fd5b50610407610bcf565b005b34801561041557600080fd5b50610430600480360381019061042b9190613d65565b610be1565b005b61044c60048036038101906104479190613d11565b610bf7565b005b34801561045a57600080fd5b50610463610d34565b6040516104709190614519565b60405180910390f35b34801561048557600080fd5b506104a0600480360381019061049b9190613bbf565b610ded565b6040516104ad91906144e3565b60405180910390f35b3480156104c257600080fd5b506104dd60048036038101906104d89190613bbf565b610e57565b005b3480156104eb57600080fd5b506104f4610e6b565b60405161050191906144fe565b60405180910390f35b34801561051657600080fd5b50610531600480360381019061052c9190613bbf565b610e82565b60405161053e9190614b2e565b60405180910390f35b34801561055357600080fd5b5061056e60048036038101906105699190613bbf565b610ed7565b60405161057b9190614aea565b60405180910390f35b34801561059057600080fd5b50610599610f20565b005b3480156105a757600080fd5b506105c260048036038101906105bd9190613bbf565b610f34565b6040516105cf9190614aea565b60405180910390f35b3480156105e457600080fd5b506105ed610f84565b005b3480156105fb57600080fd5b5061060461118c565b005b34801561061257600080fd5b5061061b61119e565b60405161062891906144e3565b60405180910390f35b34801561063d57600080fd5b5061065860048036038101906106539190613e8f565b6111c8565b6040516106659190614aea565b60405180910390f35b34801561067a57600080fd5b5061068361121f565b604051610690919061468d565b60405180910390f35b3480156106a557600080fd5b506106c060048036038101906106bb9190613bbf565b6112b1565b6040516106cd9190614aea565b60405180910390f35b3480156106e257600080fd5b506106fd60048036038101906106f89190613d65565b6113ea565b60405161070a91906144fe565b60405180910390f35b34801561071f57600080fd5b5061073a60048036038101906107359190613d65565b611461565b60405161074791906144fe565b60405180910390f35b34801561075c57600080fd5b5061077760048036038101906107729190613da1565b611484565b005b34801561078557600080fd5b506107a0600480360381019061079b9190613c73565b611588565b005b3480156107ae57600080fd5b506107c960048036038101906107c49190613be8565b6116ca565b6040516107d69190614aea565b60405180910390f35b3480156107eb57600080fd5b5061080660048036038101906108019190613e2a565b611751565b6040516108139190614acf565b60405180910390f35b34801561082857600080fd5b50610843600480360381019061083e9190613bbf565b611888565b005b60606036805461085490614d9d565b80601f016020809104026020016040519081016040528092919081815260200182805461088090614d9d565b80156108cd5780601f106108a2576101008083540402835291602001916108cd565b820191906000526020600020905b8154815290600101906020018083116108b057829003601f168201915b5050505050905090565b6000806108e261190c565b90506108ef818585611914565b600191505092915050565b60006002905090565b6000603554905090565b60008061091861190c565b9050610925858285611adf565b610930858585611b6b565b60019150509392505050565b60006012905090565b600061094f611def565b905090565b7f000000000000000000000000000000000000000000000000000000000000000073ffffffffffffffffffffffffffffffffffffffff163073ffffffffffffffffffffffffffffffffffffffff1614156109e3576040517f08c379a00000000000000000000000000000000000000000000000000000000081526004016109da906147cf565b60405180910390fd5b7f000000000000000000000000000000000000000000000000000000000000000073ffffffffffffffffffffffffffffffffffffffff16610a22611e2f565b73ffffffffffffffffffffffffffffffffffffffff1614610a78576040517f08c379a0000000000000000000000000000000000000000000000000000000008152600401610a6f9061486f565b60405180910390fd5b610a8181611e86565b610b0081600067ffffffffffffffff811115610ac6577f4e487b7100000000000000000000000000000000000000000000000000000000600052604160045260246000fd5b6040519080825280601f01601f191660200182016040528015610af85781602001600182028036833780820191505090505b506000611e91565b50565b600080610b0e61190c565b9050610b2f818585610b2085896116ca565b610b2a9190614bf7565b611914565b600191505092915050565b6000438210610b7e576040517f08c379a0000000000000000000000000000000000000000000000000000000008152600401610b75906146ef565b60405180910390fd5b610bc761013160008573ffffffffffffffffffffffffffffffffffffffff1673ffffffffffffffffffffffffffffffffffffffff1681526020019081526020016000208361200e565b905092915050565b610bd7612166565b610bdf6121e4565b565b610be9612166565b610bf38282612247565b5050565b7f000000000000000000000000000000000000000000000000000000000000000073ffffffffffffffffffffffffffffffffffffffff163073ffffffffffffffffffffffffffffffffffffffff161415610c86576040517f08c379a0000000000000000000000000000000000000000000000000000000008152600401610c7d906147cf565b60405180910390fd5b7f000000000000000000000000000000000000000000000000000000000000000073ffffffffffffffffffffffffffffffffffffffff16610cc5611e2f565b73ffffffffffffffffffffffffffffffffffffffff1614610d1b576040517f08c379a0000000000000000000000000000000000000000000000000000000008152600401610d129061486f565b60405180910390fd5b610d2482611e86565b610d3082826001611e91565b5050565b60007f000000000000000000000000000000000000000000000000000000000000000073ffffffffffffffffffffffffffffffffffffffff163073ffffffffffffffffffffffffffffffffffffffff1614610dc4576040517f08c379a0000000000000000000000000000000000000000000000000000000008152600401610dbb9061488f565b60405180910390fd5b7f360894a13ba1a3210667c828492db98dca3e2076cc3735a920a3ca505d382bbc60001b905090565b600061013060008373ffffffffffffffffffffffffffffffffffffffff1673ffffffffffffffffffffffffffffffffffffffff16815260200190815260200160002060009054906101000a900473ffffffffffffffffffffffffffffffffffffffff169050919050565b610e68610e6261190c565b82612255565b50565b6000606560009054906101000a900460ff16905090565b6000610ed061013160008473ffffffffffffffffffffffffffffffffffffffff1673ffffffffffffffffffffffffffffffffffffffff16815260200190815260200160002080549050612370565b9050919050565b6000603360008373ffffffffffffffffffffffffffffffffffffffff1673ffffffffffffffffffffffffffffffffffffffff168152602001908152602001600020549050919050565b610f28612166565b610f3260006123c3565b565b6000610f7d60fd60008473ffffffffffffffffffffffffffffffffffffffff1673ffffffffffffffffffffffffffffffffffffffff168152602001908152602001600020612489565b9050919050565b60008060019054906101000a900460ff16159050808015610fb55750600160008054906101000a900460ff1660ff16105b80610fe25750610fc430612497565b158015610fe15750600160008054906101000a900460ff1660ff16145b5b611021576040517f08c379a0000000000000000000000000000000000000000000000000000000008152600401611018906148ef565b60405180910390fd5b60016000806101000a81548160ff021916908360ff160217905550801561105e576001600060016101000a81548160ff0219169083151502179055505b6110d26040518060400160405280600b81526020017f566f74696e67546f6b656e0000000000000000000000000000000000000000008152506040518060400160405280600381526020017f564f5400000000000000000000000000000000000000000000000000000000008152506124ba565b6110da612517565b6110e2612570565b6111206040518060400160405280600b81526020017f566f74696e67546f6b656e0000000000000000000000000000000000000000008152506125c9565b61112861265a565b6111306126ab565b80156111895760008060016101000a81548160ff0219169083151502179055507f7f26b83ff96e1f2b6a682f133852f6798a09c465da95921460cefb384740249860016040516111809190614672565b60405180910390a15b50565b611194612166565b61119c6126fc565b565b6000609760009054906101000a900473ffffffffffffffffffffffffffffffffffffffff16905090565b600043821061120c576040517f08c379a0000000000000000000000000000000000000000000000000000000008152600401611203906146ef565b60405180910390fd5b6112186101328361200e565b9050919050565b60606037805461122e90614d9d565b80601f016020809104026020016040519081016040528092919081815260200182805461125a90614d9d565b80156112a75780601f1061127c576101008083540402835291602001916112a7565b820191906000526020600020905b81548152906001019060200180831161128a57829003601f168201915b5050505050905090565b60008061013160008473ffffffffffffffffffffffffffffffffffffffff1673ffffffffffffffffffffffffffffffffffffffff168152602001908152602001600020805490509050600081146113c15761013160008473ffffffffffffffffffffffffffffffffffffffff1673ffffffffffffffffffffffffffffffffffffffff16815260200190815260200160002060018261134f9190614c7e565b81548110611386577f4e487b7100000000000000000000000000000000000000000000000000000000600052603260045260246000fd5b9060005260206000200160000160049054906101000a90047bffffffffffffffffffffffffffffffffffffffffffffffffffffffff166113c4565b60005b7bffffffffffffffffffffffffffffffffffffffffffffffffffffffff16915050919050565b6000806113f561190c565b9050600061140382866116ca565b905083811015611448576040517f08c379a000000000000000000000000000000000000000000000000000000000815260040161143f90614a8f565b60405180910390fd5b6114558286868403611914565b60019250505092915050565b60008061146c61190c565b9050611479818585611b6b565b600191505092915050565b834211156114c7576040517f08c379a00000000000000000000000000000000000000000000000000000000081526004016114be9061472f565b60405180910390fd5b60006115296115217fe48329057bfd03d55e49b547132e39cffd9c1820ad7b9d4c5307691425d15adf8989896040516020016115069493929190614595565b6040516020818303038152906040528051906020012061275f565b858585612779565b9050611534816127a4565b8614611575576040517f08c379a000000000000000000000000000000000000000000000000000000000815260040161156c9061476f565b60405180910390fd5b61157f8188612255565b50505050505050565b834211156115cb576040517f08c379a00000000000000000000000000000000000000000000000000000000081526004016115c29061480f565b60405180910390fd5b60007f6e71edae12b1b97f4d1f60370fef10105fa2faae0126114a169c64845d6126c98888886115fa8c6127a4565b8960405160200161161096959493929190614534565b60405160208183030381529060405280519060200120905060006116338261275f565b9050600061164382878787612779565b90508973ffffffffffffffffffffffffffffffffffffffff168173ffffffffffffffffffffffffffffffffffffffff16146116b3576040517f08c379a00000000000000000000000000000000000000000000000000000000081526004016116aa9061494f565b60405180910390fd5b6116be8a8a8a611914565b50505050505050505050565b6000603460008473ffffffffffffffffffffffffffffffffffffffff1673ffffffffffffffffffffffffffffffffffffffff16815260200190815260200160002060008373ffffffffffffffffffffffffffffffffffffffff1673ffffffffffffffffffffffffffffffffffffffff16815260200190815260200160002054905092915050565b6117596139f8565b61013160008473ffffffffffffffffffffffffffffffffffffffff1673ffffffffffffffffffffffffffffffffffffffff1681526020019081526020016000208263ffffffff16815481106117d7577f4e487b7100000000000000000000000000000000000000000000000000000000600052603260045260246000fd5b906000526020600020016040518060400160405290816000820160009054906101000a900463ffffffff1663ffffffff1663ffffffff1681526020016000820160049054906101000a90047bffffffffffffffffffffffffffffffffffffffffffffffffffffffff167bffffffffffffffffffffffffffffffffffffffffffffffffffffffff167bffffffffffffffffffffffffffffffffffffffffffffffffffffffff1681525050905092915050565b611890612166565b600073ffffffffffffffffffffffffffffffffffffffff168173ffffffffffffffffffffffffffffffffffffffff161415611900576040517f08c379a00000000000000000000000000000000000000000000000000000000081526004016118f79061478f565b60405180910390fd5b611909816123c3565b50565b600033905090565b600073ffffffffffffffffffffffffffffffffffffffff168373ffffffffffffffffffffffffffffffffffffffff161415611984576040517f08c379a000000000000000000000000000000000000000000000000000000000815260040161197b90614a4f565b60405180910390fd5b600073ffffffffffffffffffffffffffffffffffffffff168273ffffffffffffffffffffffffffffffffffffffff1614156119f4576040517f08c379a00000000000000000000000000000000000000000000000000000000081526004016119eb906147af565b60405180910390fd5b80603460008573ffffffffffffffffffffffffffffffffffffffff1673ffffffffffffffffffffffffffffffffffffffff16815260200190815260200160002060008473ffffffffffffffffffffffffffffffffffffffff1673ffffffffffffffffffffffffffffffffffffffff168152602001908152602001600020819055508173ffffffffffffffffffffffffffffffffffffffff168373ffffffffffffffffffffffffffffffffffffffff167f8c5be1e5ebec7d5bd14f71427d1e84f3dd0314c0f7b2291e5b200ac8c7c3b92583604051611ad29190614aea565b60405180910390a3505050565b6000611aeb84846116ca565b90507fffffffffffffffffffffffffffffffffffffffffffffffffffffffffffffffff8114611b655781811015611b57576040517f08c379a0000000000000000000000000000000000000000000000000000000008152600401611b4e906147ef565b60405180910390fd5b611b648484848403611914565b5b50505050565b600073ffffffffffffffffffffffffffffffffffffffff168373ffffffffffffffffffffffffffffffffffffffff161415611bdb576040517f08c379a0000000000000000000000000000000000000000000000000000000008152600401611bd290614a0f565b60405180910390fd5b600073ffffffffffffffffffffffffffffffffffffffff168273ffffffffffffffffffffffffffffffffffffffff161415611c4b576040517f08c379a0000000000000000000000000000000000000000000000000000000008152600401611c42906146cf565b60405180910390fd5b611c56838383612802565b6000603360008573ffffffffffffffffffffffffffffffffffffffff1673ffffffffffffffffffffffffffffffffffffffff16815260200190815260200160002054905081811015611cdd576040517f08c379a0000000000000000000000000000000000000000000000000000000008152600401611cd49061482f565b60405180910390fd5b818103603360008673ffffffffffffffffffffffffffffffffffffffff1673ffffffffffffffffffffffffffffffffffffffff1681526020019081526020016000208190555081603360008573ffffffffffffffffffffffffffffffffffffffff1673ffffffffffffffffffffffffffffffffffffffff1681526020019081526020016000206000828254611d729190614bf7565b925050819055508273ffffffffffffffffffffffffffffffffffffffff168473ffffffffffffffffffffffffffffffffffffffff167fddf252ad1be2c89b69c2b068fc378daa952ba7f163c4a11628f55a4df523b3ef84604051611dd69190614aea565b60405180910390a3611de984848461281a565b50505050565b6000611e2a7f8b73c3c69bb8fe3d512ecc4cf759cc79239f7b179b0ffacaa9a75d522b39400f611e1d61282a565b611e25612834565b61283e565b905090565b6000611e5d7f360894a13ba1a3210667c828492db98dca3e2076cc3735a920a3ca505d382bbc60001b612878565b60000160009054906101000a900473ffffffffffffffffffffffffffffffffffffffff16905090565b611e8e612166565b50565b611ebd7f4910fdfa16fed3260ed0e7147f7cc6da11a60208b5b9406d12a635614ffd914360001b612882565b60000160009054906101000a900460ff1615611ee157611edc8361288c565b612009565b8273ffffffffffffffffffffffffffffffffffffffff166352d1902d6040518163ffffffff1660e01b815260040160206040518083038186803b158015611f2757600080fd5b505afa925050508015611f5857506040513d601f19601f82011682018060405250810190611f559190613e66565b60015b611f97576040517f08c379a0000000000000000000000000000000000000000000000000000000008152600401611f8e9061492f565b60405180910390fd5b7f360894a13ba1a3210667c828492db98dca3e2076cc3735a920a3ca505d382bbc60001b8114611ffc576040517f08c379a0000000000000000000000000000000000000000000000000000000008152600401611ff3906148cf565b60405180910390fd5b50612008838383612945565b5b505050565b6000808380549050905060005b818110156120b357600061202f8284612971565b90508486828154811061206b577f4e487b7100000000000000000000000000000000000000000000000000000000600052603260045260246000fd5b9060005260206000200160000160009054906101000a900463ffffffff1663ffffffff16111561209d578092506120ad565b6001816120aa9190614bf7565b91505b5061201b565b6000821461213b57846001836120c99190614c7e565b81548110612100577f4e487b7100000000000000000000000000000000000000000000000000000000600052603260045260246000fd5b9060005260206000200160000160049054906101000a90047bffffffffffffffffffffffffffffffffffffffffffffffffffffffff1661213e565b60005b7bffffffffffffffffffffffffffffffffffffffffffffffffffffffff169250505092915050565b61216e61190c565b73ffffffffffffffffffffffffffffffffffffffff1661218c61119e565b73ffffffffffffffffffffffffffffffffffffffff16146121e2576040517f08c379a00000000000000000000000000000000000000000000000000000000081526004016121d9906149af565b60405180910390fd5b565b6121ec612997565b6000606560006101000a81548160ff0219169083151502179055507f5db9ee0a495bf2e6ff9c91a7834c1ba4fdd244a5e8aa4e537bd38aeae4b073aa61223061190c565b60405161223d91906144e3565b60405180910390a1565b61225182826129e0565b5050565b600061226083610ded565b9050600061226d84610ed7565b90508261013060008673ffffffffffffffffffffffffffffffffffffffff1673ffffffffffffffffffffffffffffffffffffffff16815260200190815260200160002060006101000a81548173ffffffffffffffffffffffffffffffffffffffff021916908373ffffffffffffffffffffffffffffffffffffffff1602179055508273ffffffffffffffffffffffffffffffffffffffff168273ffffffffffffffffffffffffffffffffffffffff168573ffffffffffffffffffffffffffffffffffffffff167f3134e8a2e6d97e929a7e54011ea5485d7d196dd5f0ba4d4ef95803e8e3fc257f60405160405180910390a461236a828483612a6e565b50505050565b600063ffffffff80168211156123bb576040517f08c379a00000000000000000000000000000000000000000000000000000000081526004016123b290614a2f565b60405180910390fd5b819050919050565b6000609760009054906101000a900473ffffffffffffffffffffffffffffffffffffffff16905081609760006101000a81548173ffffffffffffffffffffffffffffffffffffffff021916908373ffffffffffffffffffffffffffffffffffffffff1602179055508173ffffffffffffffffffffffffffffffffffffffff168173ffffffffffffffffffffffffffffffffffffffff167f8be0079c531659141344cd1fd0a4f28419497f9722a3daafe3b4186f6b6457e060405160405180910390a35050565b600081600001549050919050565b6000808273ffffffffffffffffffffffffffffffffffffffff163b119050919050565b600060019054906101000a900460ff16612509576040517f08c379a000000000000000000000000000000000000000000000000000000000815260040161250090614a6f565b60405180910390fd5b6125138282612c69565b5050565b600060019054906101000a900460ff16612566576040517f08c379a000000000000000000000000000000000000000000000000000000000815260040161255d90614a6f565b60405180910390fd5b61256e612cea565b565b600060019054906101000a900460ff166125bf576040517f08c379a00000000000000000000000000000000000000000000000000000000081526004016125b690614a6f565b60405180910390fd5b6125c7612d56565b565b600060019054906101000a900460ff16612618576040517f08c379a000000000000000000000000000000000000000000000000000000000815260040161260f90614a6f565b60405180910390fd5b612657816040518060400160405280600181526020017f3100000000000000000000000000000000000000000000000000000000000000815250612db7565b50565b600060019054906101000a900460ff166126a9576040517f08c379a00000000000000000000000000000000000000000000000000000000081526004016126a090614a6f565b60405180910390fd5b565b600060019054906101000a900460ff166126fa576040517f08c379a00000000000000000000000000000000000000000000000000000000081526004016126f190614a6f565b60405180910390fd5b565b612704612e32565b6001606560006101000a81548160ff0219169083151502179055507f62e78cea01bee320cd4e420270b5ea74000d11b0c9f74754ebdbfc544b05a25861274861190c565b60405161275591906144e3565b60405180910390a1565b600061277261276c611def565b83612e7c565b9050919050565b600080600061278a87878787612eaf565b9150915061279781612fbc565b8192505050949350505050565b60008060fd60008473ffffffffffffffffffffffffffffffffffffffff1673ffffffffffffffffffffffffffffffffffffffff16815260200190815260200160002090506127f181612489565b91506127fc8161330d565b50919050565b61280a612e32565b612815838383613323565b505050565b612825838383613328565b505050565b600060c954905090565b600060ca54905090565b600083838346306040516020016128599594939291906145da565b6040516020818303038152906040528051906020012090509392505050565b6000819050919050565b6000819050919050565b61289581612497565b6128d4576040517f08c379a00000000000000000000000000000000000000000000000000000000081526004016128cb9061496f565b60405180910390fd5b806129017f360894a13ba1a3210667c828492db98dca3e2076cc3735a920a3ca505d382bbc60001b612878565b60000160006101000a81548173ffffffffffffffffffffffffffffffffffffffff021916908373ffffffffffffffffffffffffffffffffffffffff16021790555050565b61294e83613353565b60008251118061295b5750805b1561296c5761296a83836133a2565b505b505050565b600060028284186129829190614c4d565b82841661298f9190614bf7565b905092915050565b61299f610e6b565b6129de576040517f08c379a00000000000000000000000000000000000000000000000000000000081526004016129d59061470f565b60405180910390fd5b565b6129ea8282613486565b6129f26135e7565b7bffffffffffffffffffffffffffffffffffffffffffffffffffffffff16612a18610903565b1115612a59576040517f08c379a0000000000000000000000000000000000000000000000000000000008152600401612a509061498f565b60405180910390fd5b612a6861013261360b83613621565b50505050565b8173ffffffffffffffffffffffffffffffffffffffff168373ffffffffffffffffffffffffffffffffffffffff1614158015612aaa5750600081115b15612c6457600073ffffffffffffffffffffffffffffffffffffffff168373ffffffffffffffffffffffffffffffffffffffff1614612b8957600080612b3261013160008773ffffffffffffffffffffffffffffffffffffffff1673ffffffffffffffffffffffffffffffffffffffff16815260200190815260200160002061390b85613621565b915091508473ffffffffffffffffffffffffffffffffffffffff167fdec2bacdd2f05b59de34da9b523dff8be42e5e38e818c82fdb0bae774387a7248383604051612b7e929190614b05565b60405180910390a250505b600073ffffffffffffffffffffffffffffffffffffffff168273ffffffffffffffffffffffffffffffffffffffff1614612c6357600080612c0c61013160008673ffffffffffffffffffffffffffffffffffffffff1673ffffffffffffffffffffffffffffffffffffffff16815260200190815260200160002061360b85613621565b915091508373ffffffffffffffffffffffffffffffffffffffff167fdec2bacdd2f05b59de34da9b523dff8be42e5e38e818c82fdb0bae774387a7248383604051612c58929190614b05565b60405180910390a250505b5b505050565b600060019054906101000a900460ff16612cb8576040517f08c379a0000000000000000000000000000000000000000000000000000000008152600401612caf90614a6f565b60405180910390fd5b8160369080519060200190612cce929190613a36565b508060379080519060200190612ce5929190613a36565b505050565b600060019054906101000a900460ff16612d39576040517f08c379a0000000000000000000000000000000000000000000000000000000008152600401612d3090614a6f565b60405180910390fd5b6000606560006101000a81548160ff021916908315150217905550565b600060019054906101000a900460ff16612da5576040517f08c379a0000000000000000000000000000000000000000000000000000000008152600401612d9c90614a6f565b60405180910390fd5b612db5612db061190c565b6123c3565b565b600060019054906101000a900460ff16612e06576040517f08c379a0000000000000000000000000000000000000000000000000000000008152600401612dfd90614a6f565b60405180910390fd5b6000828051906020012090506000828051906020012090508160c9819055508060ca8190555050505050565b612e3a610e6b565b15612e7a576040517f08c379a0000000000000000000000000000000000000000000000000000000008152600401612e71906148af565b60405180910390fd5b565b60008282604051602001612e919291906144ac565b60405160208183030381529060405280519060200120905092915050565b6000807f7fffffffffffffffffffffffffffffff5d576e7357a4501ddfe92f46681b20a08360001c1115612eea576000600391509150612fb3565b601b8560ff1614158015612f025750601c8560ff1614155b15612f14576000600491509150612fb3565b600060018787878760405160008152602001604052604051612f39949392919061462d565b6020604051602081039080840390855afa158015612f5b573d6000803e3d6000fd5b505050602060405103519050600073ffffffffffffffffffffffffffffffffffffffff168173ffffffffffffffffffffffffffffffffffffffff161415612faa57600060019250925050612fb3565b80600092509250505b94509492505050565b60006004811115612ff6577f4e487b7100000000000000000000000000000000000000000000000000000000600052602160045260246000fd5b81600481111561302f577f4e487b7100000000000000000000000000000000000000000000000000000000600052602160045260246000fd5b141561303a5761330a565b60016004811115613074577f4e487b7100000000000000000000000000000000000000000000000000000000600052602160045260246000fd5b8160048111156130ad577f4e487b7100000000000000000000000000000000000000000000000000000000600052602160045260246000fd5b14156130ee576040517f08c379a00000000000000000000000000000000000000000000000000000000081526004016130e5906146af565b60405180910390fd5b60026004811115613128577f4e487b7100000000000000000000000000000000000000000000000000000000600052602160045260246000fd5b816004811115613161577f4e487b7100000000000000000000000000000000000000000000000000000000600052602160045260246000fd5b14156131a2576040517f08c379a00000000000000000000000000000000000000000000000000000000081526004016131999061474f565b60405180910390fd5b600360048111156131dc577f4e487b7100000000000000000000000000000000000000000000000000000000600052602160045260246000fd5b816004811115613215577f4e487b7100000000000000000000000000000000000000000000000000000000600052602160045260246000fd5b1415613256576040517f08c379a000000000000000000000000000000000000000000000000000000000815260040161324d9061484f565b60405180910390fd5b60048081111561328f577f4e487b7100000000000000000000000000000000000000000000000000000000600052602160045260246000fd5b8160048111156132c8577f4e487b7100000000000000000000000000000000000000000000000000000000600052602160045260246000fd5b1415613309576040517f08c379a00000000000000000000000000000000000000000000000000000000081526004016133009061490f565b60405180910390fd5b5b50565b6001816000016000828254019250508190555050565b505050565b613333838383613921565b61334e61333f84610ded565b61334884610ded565b83612a6e565b505050565b61335c8161288c565b8073ffffffffffffffffffffffffffffffffffffffff167fbc7cd75a20ee27fd9adebab32041f755214dbc6bffa90cc0225b39da2e5c2d3b60405160405180910390a250565b60606133ad83612497565b6133ec576040517f08c379a00000000000000000000000000000000000000000000000000000000081526004016133e3906149ef565b60405180910390fd5b6000808473ffffffffffffffffffffffffffffffffffffffff16846040516134149190614495565b600060405180830381855af49150503d806000811461344f576040519150601f19603f3d011682016040523d82523d6000602084013e613454565b606091505b509150915061347c82826040518060600160405280602781526020016157db60279139613926565b9250505092915050565b600073ffffffffffffffffffffffffffffffffffffffff168273ffffffffffffffffffffffffffffffffffffffff1614156134f6576040517f08c379a00000000000000000000000000000000000000000000000000000000081526004016134ed90614aaf565b60405180910390fd5b61350260008383612802565b80603560008282546135149190614bf7565b9250508190555080603360008473ffffffffffffffffffffffffffffffffffffffff1673ffffffffffffffffffffffffffffffffffffffff168152602001908152602001600020600082825461356a9190614bf7565b925050819055508173ffffffffffffffffffffffffffffffffffffffff16600073ffffffffffffffffffffffffffffffffffffffff167fddf252ad1be2c89b69c2b068fc378daa952ba7f163c4a11628f55a4df523b3ef836040516135cf9190614aea565b60405180910390a36135e36000838361281a565b5050565b60007bffffffffffffffffffffffffffffffffffffffffffffffffffffffff905090565b600081836136199190614bf7565b905092915050565b600080600085805490509050600081146136b557856001826136439190614c7e565b8154811061367a577f4e487b7100000000000000000000000000000000000000000000000000000000600052603260045260246000fd5b9060005260206000200160000160049054906101000a90047bffffffffffffffffffffffffffffffffffffffffffffffffffffffff166136b8565b60005b7bffffffffffffffffffffffffffffffffffffffffffffffffffffffff1692506136e683858763ffffffff16565b915060008111801561375f575043866001836137029190614c7e565b81548110613739577f4e487b7100000000000000000000000000000000000000000000000000000000600052603260045260246000fd5b9060005260206000200160000160009054906101000a900463ffffffff1663ffffffff16145b156138125761376d8261398d565b8660018361377b9190614c7e565b815481106137b2577f4e487b7100000000000000000000000000000000000000000000000000000000600052603260045260246000fd5b9060005260206000200160000160046101000a8154817bffffffffffffffffffffffffffffffffffffffffffffffffffffffff02191690837bffffffffffffffffffffffffffffffffffffffffffffffffffffffff160217905550613902565b85604051806040016040528061382743612370565b63ffffffff16815260200161383b8561398d565b7bffffffffffffffffffffffffffffffffffffffffffffffffffffffff168152509080600181540180825580915050600190039060005260206000200160009091909190915060008201518160000160006101000a81548163ffffffff021916908363ffffffff16021790555060208201518160000160046101000a8154817bffffffffffffffffffffffffffffffffffffffffffffffffffffffff02191690837bffffffffffffffffffffffffffffffffffffffffffffffffffffffff16021790555050505b50935093915050565b600081836139199190614c7e565b905092915050565b505050565b6060831561393657829050613986565b6000835111156139495782518084602001fd5b816040517f08c379a000000000000000000000000000000000000000000000000000000000815260040161397d919061468d565b60405180910390fd5b9392505050565b60007bffffffffffffffffffffffffffffffffffffffffffffffffffffffff80168211156139f0576040517f08c379a00000000000000000000000000000000000000000000000000000000081526004016139e7906149cf565b60405180910390fd5b819050919050565b6040518060400160405280600063ffffffff16815260200160007bffffffffffffffffffffffffffffffffffffffffffffffffffffffff1681525090565b828054613a4290614d9d565b90600052602060002090601f016020900481019282613a645760008555613aab565b82601f10613a7d57805160ff1916838001178555613aab565b82800160010185558215613aab579182015b82811115613aaa578251825591602001919060010190613a8f565b5b509050613ab89190613abc565b5090565b5b80821115613ad5576000816000905550600101613abd565b5090565b6000613aec613ae784614b89565b614b64565b905082815260208101848484011115613b0457600080fd5b613b0f848285614d5b565b509392505050565b600081359050613b2681615767565b92915050565b600081359050613b3b8161577e565b92915050565b600081519050613b508161577e565b92915050565b600082601f830112613b6757600080fd5b8135613b77848260208601613ad9565b91505092915050565b600081359050613b8f81615795565b92915050565b600081359050613ba4816157ac565b92915050565b600081359050613bb9816157c3565b92915050565b600060208284031215613bd157600080fd5b6000613bdf84828501613b17565b91505092915050565b60008060408385031215613bfb57600080fd5b6000613c0985828601613b17565b9250506020613c1a85828601613b17565b9150509250929050565b600080600060608486031215613c3957600080fd5b6000613c4786828701613b17565b9350506020613c5886828701613b17565b9250506040613c6986828701613b80565b9150509250925092565b600080600080600080600060e0888a031215613c8e57600080fd5b6000613c9c8a828b01613b17565b9750506020613cad8a828b01613b17565b9650506040613cbe8a828b01613b80565b9550506060613ccf8a828b01613b80565b9450506080613ce08a828b01613baa565b93505060a0613cf18a828b01613b2c565b92505060c0613d028a828b01613b2c565b91505092959891949750929550565b60008060408385031215613d2457600080fd5b6000613d3285828601613b17565b925050602083013567ffffffffffffffff811115613d4f57600080fd5b613d5b85828601613b56565b9150509250929050565b60008060408385031215613d7857600080fd5b6000613d8685828601613b17565b9250506020613d9785828601613b80565b9150509250929050565b60008060008060008060c08789031215613dba57600080fd5b6000613dc889828a01613b17565b9650506020613dd989828a01613b80565b9550506040613dea89828a01613b80565b9450506060613dfb89828a01613baa565b9350506080613e0c89828a01613b2c565b92505060a0613e1d89828a01613b2c565b9150509295509295509295565b60008060408385031215613e3d57600080fd5b6000613e4b85828601613b17565b9250506020613e5c85828601613b95565b9150509250929050565b600060208284031215613e7857600080fd5b6000613e8684828501613b41565b91505092915050565b600060208284031215613ea157600080fd5b6000613eaf84828501613b80565b91505092915050565b613ec181614cb2565b82525050565b613ed081614cc4565b82525050565b613edf81614cd0565b82525050565b613ef6613ef182614cd0565b614e00565b82525050565b6000613f0782614bba565b613f118185614bd0565b9350613f21818560208601614d6a565b80840191505092915050565b613f3681614d49565b82525050565b6000613f4782614bc5565b613f518185614bdb565b9350613f61818560208601614d6a565b613f6a81614ec6565b840191505092915050565b6000613f82601883614bdb565b9150613f8d82614ed7565b602082019050919050565b6000613fa5602383614bdb565b9150613fb082614f00565b604082019050919050565b6000613fc8601f83614bdb565b9150613fd382614f4f565b602082019050919050565b6000613feb601483614bdb565b9150613ff682614f78565b602082019050919050565b600061400e601d83614bdb565b915061401982614fa1565b602082019050919050565b6000614031601f83614bdb565b915061403c82614fca565b602082019050919050565b6000614054601983614bdb565b915061405f82614ff3565b602082019050919050565b6000614077602683614bdb565b91506140828261501c565b604082019050919050565b600061409a602283614bdb565b91506140a58261506b565b604082019050919050565b60006140bd600283614bec565b91506140c8826150ba565b600282019050919050565b60006140e0602c83614bdb565b91506140eb826150e3565b604082019050919050565b6000614103601d83614bdb565b915061410e82615132565b602082019050919050565b6000614126601d83614bdb565b91506141318261515b565b602082019050919050565b6000614149602683614bdb565b915061415482615184565b604082019050919050565b600061416c602283614bdb565b9150614177826151d3565b604082019050919050565b600061418f602c83614bdb565b915061419a82615222565b604082019050919050565b60006141b2603883614bdb565b91506141bd82615271565b604082019050919050565b60006141d5601083614bdb565b91506141e0826152c0565b602082019050919050565b60006141f8602983614bdb565b9150614203826152e9565b604082019050919050565b600061421b602e83614bdb565b915061422682615338565b604082019050919050565b600061423e602283614bdb565b915061424982615387565b604082019050919050565b6000614261602e83614bdb565b915061426c826153d6565b604082019050919050565b6000614284601e83614bdb565b915061428f82615425565b602082019050919050565b60006142a7602d83614bdb565b91506142b28261544e565b604082019050919050565b60006142ca603083614bdb565b91506142d58261549d565b604082019050919050565b60006142ed602083614bdb565b91506142f8826154ec565b602082019050919050565b6000614310602783614bdb565b915061431b82615515565b604082019050919050565b6000614333602683614bdb565b915061433e82615564565b604082019050919050565b6000614356602583614bdb565b9150614361826155b3565b604082019050919050565b6000614379602683614bdb565b915061438482615602565b604082019050919050565b600061439c602483614bdb565b91506143a782615651565b604082019050919050565b60006143bf602b83614bdb565b91506143ca826156a0565b604082019050919050565b60006143e2602583614bdb565b91506143ed826156ef565b604082019050919050565b6000614405601f83614bdb565b91506144108261573e565b602082019050919050565b6040820160008201516144316000850182614468565b506020820151614444602085018261444a565b50505050565b61445381614cfa565b82525050565b61446281614d22565b82525050565b61447181614d2c565b82525050565b61448081614d2c565b82525050565b61448f81614d3c565b82525050565b60006144a18284613efc565b915081905092915050565b60006144b7826140b0565b91506144c38285613ee5565b6020820191506144d38284613ee5565b6020820191508190509392505050565b60006020820190506144f86000830184613eb8565b92915050565b60006020820190506145136000830184613ec7565b92915050565b600060208201905061452e6000830184613ed6565b92915050565b600060c0820190506145496000830189613ed6565b6145566020830188613eb8565b6145636040830187613eb8565b6145706060830186614459565b61457d6080830185614459565b61458a60a0830184614459565b979650505050505050565b60006080820190506145aa6000830187613ed6565b6145b76020830186613eb8565b6145c46040830185614459565b6145d16060830184614459565b95945050505050565b600060a0820190506145ef6000830188613ed6565b6145fc6020830187613ed6565b6146096040830186613ed6565b6146166060830185614459565b6146236080830184613eb8565b9695505050505050565b60006080820190506146426000830187613ed6565b61464f6020830186614486565b61465c6040830185613ed6565b6146696060830184613ed6565b95945050505050565b60006020820190506146876000830184613f2d565b92915050565b600060208201905081810360008301526146a78184613f3c565b905092915050565b600060208201905081810360008301526146c881613f75565b9050919050565b600060208201905081810360008301526146e881613f98565b9050919050565b6000602082019050818103600083015261470881613fbb565b9050919050565b6000602082019050818103600083015261472881613fde565b9050919050565b6000602082019050818103600083015261474881614001565b9050919050565b6000602082019050818103600083015261476881614024565b9050919050565b6000602082019050818103600083015261478881614047565b9050919050565b600060208201905081810360008301526147a88161406a565b9050919050565b600060208201905081810360008301526147c88161408d565b9050919050565b600060208201905081810360008301526147e8816140d3565b9050919050565b60006020820190508181036000830152614808816140f6565b9050919050565b6000602082019050818103600083015261482881614119565b9050919050565b600060208201905081810360008301526148488161413c565b9050919050565b600060208201905081810360008301526148688161415f565b9050919050565b6000602082019050818103600083015261488881614182565b9050919050565b600060208201905081810360008301526148a8816141a5565b9050919050565b600060208201905081810360008301526148c8816141c8565b9050919050565b600060208201905081810360008301526148e8816141eb565b9050919050565b600060208201905081810360008301526149088161420e565b9050919050565b6000602082019050818103600083015261492881614231565b9050919050565b6000602082019050818103600083015261494881614254565b9050919050565b6000602082019050818103600083015261496881614277565b9050919050565b600060208201905081810360008301526149888161429a565b9050919050565b600060208201905081810360008301526149a8816142bd565b9050919050565b600060208201905081810360008301526149c8816142e0565b9050919050565b600060208201905081810360008301526149e881614303565b9050919050565b60006020820190508181036000830152614a0881614326565b9050919050565b60006020820190508181036000830152614a2881614349565b9050919050565b60006020820190508181036000830152614a488161436c565b9050919050565b60006020820190508181036000830152614a688161438f565b9050919050565b60006020820190508181036000830152614a88816143b2565b9050919050565b60006020820190508181036000830152614aa8816143d5565b9050919050565b60006020820190508181036000830152614ac8816143f8565b9050919050565b6000604082019050614ae4600083018461441b565b92915050565b6000602082019050614aff6000830184614459565b92915050565b6000604082019050614b1a6000830185614459565b614b276020830184614459565b9392505050565b6000602082019050614b436000830184614477565b92915050565b6000602082019050614b5e6000830184614486565b92915050565b6000614b6e614b7f565b9050614b7a8282614dcf565b919050565b6000604051905090565b600067ffffffffffffffff821115614ba457614ba3614e97565b5b614bad82614ec6565b9050602081019050919050565b600081519050919050565b600081519050919050565b600081905092915050565b600082825260208201905092915050565b600081905092915050565b6000614c0282614d22565b9150614c0d83614d22565b9250827fffffffffffffffffffffffffffffffffffffffffffffffffffffffffffffffff03821115614c4257614c41614e0a565b5b828201905092915050565b6000614c5882614d22565b9150614c6383614d22565b925082614c7357614c72614e39565b5b828204905092915050565b6000614c8982614d22565b9150614c9483614d22565b925082821015614ca757614ca6614e0a565b5b828203905092915050565b6000614cbd82614cda565b9050919050565b60008115159050919050565b6000819050919050565b600073ffffffffffffffffffffffffffffffffffffffff82169050919050565b60007bffffffffffffffffffffffffffffffffffffffffffffffffffffffff82169050919050565b6000819050919050565b600063ffffffff82169050919050565b600060ff82169050919050565b6000614d5482614d3c565b9050919050565b82818337600083830152505050565b60005b83811015614d88578082015181840152602081019050614d6d565b83811115614d97576000848401525b50505050565b60006002820490506001821680614db557607f821691505b60208210811415614dc957614dc8614e68565b5b50919050565b614dd882614ec6565b810181811067ffffffffffffffff82111715614df757614df6614e97565b5b80604052505050565b6000819050919050565b7f4e487b7100000000000000000000000000000000000000000000000000000000600052601160045260246000fd5b7f4e487b7100000000000000000000000000000000000000000000000000000000600052601260045260246000fd5b7f4e487b7100000000000000000000000000000000000000000000000000000000600052602260045260246000fd5b7f4e487b7100000000000000000000000000000000000000000000000000000000600052604160045260246000fd5b6000601f19601f8301169050919050565b7f45434453413a20696e76616c6964207369676e61747572650000000000000000600082015250565b7f45524332303a207472616e7366657220746f20746865207a65726f206164647260008201527f6573730000000000000000000000000000000000000000000000000000000000602082015250565b7f4552433230566f7465733a20626c6f636b206e6f7420796574206d696e656400600082015250565b7f5061757361626c653a206e6f7420706175736564000000000000000000000000600082015250565b7f4552433230566f7465733a207369676e61747572652065787069726564000000600082015250565b7f45434453413a20696e76616c6964207369676e6174757265206c656e67746800600082015250565b7f4552433230566f7465733a20696e76616c6964206e6f6e636500000000000000600082015250565b7f4f776e61626c653a206e6577206f776e657220697320746865207a65726f206160008201527f6464726573730000000000000000000000000000000000000000000000000000602082015250565b7f45524332303a20617070726f766520746f20746865207a65726f20616464726560008201527f7373000000000000000000000000000000000000000000000000000000000000602082015250565b7f1901000000000000000000000000000000000000000000000000000000000000600082015250565b7f46756e6374696f6e206d7573742062652063616c6c6564207468726f7567682060008201527f64656c656761746563616c6c0000000000000000000000000000000000000000602082015250565b7f45524332303a20696e73756666696369656e7420616c6c6f77616e6365000000600082015250565b7f45524332305065726d69743a206578706972656420646561646c696e65000000600082015250565b7f45524332303a207472616e7366657220616d6f756e742065786365656473206260008201527f616c616e63650000000000000000000000000000000000000000000000000000602082015250565b7f45434453413a20696e76616c6964207369676e6174757265202773272076616c60008201527f7565000000000000000000000000000000000000000000000000000000000000602082015250565b7f46756e6374696f6e206d7573742062652063616c6c6564207468726f7567682060008201527f6163746976652070726f78790000000000000000000000000000000000000000602082015250565b7f555550535570677261646561626c653a206d757374206e6f742062652063616c60008201527f6c6564207468726f7567682064656c656761746563616c6c0000000000000000602082015250565b7f5061757361626c653a2070617573656400000000000000000000000000000000600082015250565b7f45524331393637557067726164653a20756e737570706f727465642070726f7860008201527f6961626c65555549440000000000000000000000000000000000000000000000602082015250565b7f496e697469616c697a61626c653a20636f6e747261637420697320616c72656160008201527f647920696e697469616c697a6564000000000000000000000000000000000000602082015250565b7f45434453413a20696e76616c6964207369676e6174757265202776272076616c60008201527f7565000000000000000000000000000000000000000000000000000000000000602082015250565b7f45524331393637557067726164653a206e657720696d706c656d656e7461746960008201527f6f6e206973206e6f742055555053000000000000000000000000000000000000602082015250565b7f45524332305065726d69743a20696e76616c6964207369676e61747572650000600082015250565b7f455243313936373a206e657720696d706c656d656e746174696f6e206973206e60008201527f6f74206120636f6e747261637400000000000000000000000000000000000000602082015250565b7f4552433230566f7465733a20746f74616c20737570706c79207269736b73206f60008201527f766572666c6f77696e6720766f74657300000000000000000000000000000000602082015250565b7f4f776e61626c653a2063616c6c6572206973206e6f7420746865206f776e6572600082015250565b7f53616665436173743a2076616c756520646f65736e27742066697420696e203260008201527f3234206269747300000000000000000000000000000000000000000000000000602082015250565b7f416464726573733a2064656c65676174652063616c6c20746f206e6f6e2d636f60008201527f6e74726163740000000000000000000000000000000000000000000000000000602082015250565b7f45524332303a207472616e736665722066726f6d20746865207a65726f20616460008201527f6472657373000000000000000000000000000000000000000000000000000000602082015250565b7f53616665436173743a2076616c756520646f65736e27742066697420696e203360008201527f3220626974730000000000000000000000000000000000000000000000000000602082015250565b7f45524332303a20617070726f76652066726f6d20746865207a65726f2061646460008201527f7265737300000000000000000000000000000000000000000000000000000000602082015250565b7f496e697469616c697a61626c653a20636f6e7472616374206973206e6f74206960008201527f6e697469616c697a696e67000000000000000000000000000000000000000000602082015250565b7f45524332303a2064656372656173656420616c6c6f77616e63652062656c6f7760008201527f207a65726f000000000000000000000000000000000000000000000000000000602082015250565b7f45524332303a206d696e7420746f20746865207a65726f206164647265737300600082015250565b61577081614cb2565b811461577b57600080fd5b50565b61578781614cd0565b811461579257600080fd5b50565b61579e81614d22565b81146157a957600080fd5b50565b6157b581614d2c565b81146157c057600080fd5b50565b6157cc81614d3c565b81146157d757600080fd5b5056fe416464726573733a206c6f772d6c6576656c2064656c65676174652063616c6c206661696c6564a2646970667358221220fd5aeab4d25cb13fbc1c125388ce8da55a3caaf8e2a941382f69b2e161eaf13764736f6c63430008040033",
  "linkReferences": {},
  "deployedLinkReferences": {}
}